:04000000C1EF00F05C
:100008004D82FACF03F0FBCF04F0E9CF05F0EACF39
:1000180006F0E1CF07F0E2CF08F0D9CF09F0DACF48
:100028000AF0F3CF0BF0F4CF0CF0F6CF0DF0F7CFCA
:100038000EF0F8CF0FF0F5CF10F0A0B0A1A01ED0B1
:100048008CA210D08C9267CF01F068CF02F0011E0D
:10005800021E014A022A400E0124676E1F0E02206A
:10006800686E05D08C8247C067FF48C068FF000EE5
:100078000F01506F000E4F6FA19061D07AB07BA036
:100088001FD08CA012D08C905ECF01F05FCF02F011
:10009800011E021E014A022A400E01240F015E6F52
:1000A8001F0E02200F015F6F05D08C8049C05EFFD4
:1000B8004AC05FFF7B90000ECF6E000ECE6E3FD021
:1000C800A1BCA0AC0AD0010E0001B327000EB423D6
:1000D800B523B62379CF11F0A19CA1BAA0AA0AD062
:1000E800010E0001B727000EB823B923BA2378CF31
:1000F80012F0A19A9DB29EA209D0010E0001AF276D
:10010800000EB023B123B2239E9219D0F2B2F2A806
:1001180016D00001BF4BC02BF292000E0001B36F46
:10012800000EB46F000EB56F000EB66F000E000122
:10013800B76F000EB86F000EB96F000EBA6F10C01F
:10014800F5FF0FC0F8FF0EC0F7FF0DC0F6FF0CC09B
:10015800F4FF0BC0F3FF0AC0DAFF09C0D9FF08C0DB
:10016800E2FF07C0E1FF06C0EAFF05C0E9FF04C0DF
:0E017800FBFF03C0FAFF4D92110033EF17F0AA
:101000000001000A006400E8031027526967687451
:101010002053706565642C202564004C656674203F
:1010200053706565643A202564004576656E743AB0
:1010300020253364004576656E743A20256400529D
:0510400075746800005A
:10104600330E0001D06FB30E0001D16F3F0E0001C9
:10105600D26F0001C6BF08D00001C65121E1460E7D
:101066000001C55DD8B01CD00001DF4BE02B0001AC
:10107600DD4BDE2BDFC082F0E0C083F0CEC084F013
:10108600CFC085F0720E9DEC13F0DDC082F0DEC09D
:1010960083F0CEC084F0CFC085F06C0E9DEC13F0CB
:1010A6000001C6BF2ED00001C65105E1790E000130
:1010B600C55DD8A026D00001DF07D8A0E007000153
:1010C600DD07D8A0DE070001DF07D8A0E007DFC0F4
:1010D60082F0E0C083F0CEC084F0CFC085F0720EFF
:1010E6009DEC13F00001DD07D8A0DE07DDC082F01D
:1010F600DEC083F0CEC084F0CFC085F06C0E9DECD0
:1011060013F0010E0001B72500018A6F000E0001E1
:10111600B82100018B6F000E0001B92100018C6F10
:10112600000E0001BA2100018D6F0001B3510001CC
:101136008A5D0001B45100018B590001B5510001CF
:101146008C590001B65100018D59D8B075D0B7C081
:101156008AF0B8C08BF0B9C08CF0BAC08DF000012F
:101166008A1F8B1F8C1F8D1F8A2B000E8B238C23AF
:101176008D230001B35100018A251B6E0001B45175
:1011860000018B211C6E0001B55100018C211D6EE2
:101196000001B65100018D211E6E62EC17F01BC0D6
:1011A60060F01CC061F01DC062F04EEC11F060C032
:1011B60094F061C095F062C096F0000E366E400E57
:1011C600376E400E386E94C033F095C034F096C03A
:1011D60035F025EC12F033C08EF034C08FF035C0F8
:1011E60090F08EC042F08FC043F090C044F0CEC065
:1011F6001BF0CFC01CF051EC18F01BC03FF01CC018
:1012060040F01DC041F031EC18F03FC073F040C013
:1012160074F041C075F0FBEC12F073C0CEF074C0F0
:10122600CFF0DDC082F0DEC083F0CEC084F0CFC048
:1012360085F06C0E9DEC13F0010E0001B325000144
:101246008A6F000E0001B42100018B6F000E0001B1
:10125600B52100018C6F000E0001B62100018D6FD3
:101266000001B75100018A5D0001B85100018B5998
:101276000001B95100018C590001BA5100018D5984
:10128600D8B075D0B3C08AF0B4C08BF0B5C08CF0BE
:10129600B6C08DF000018A1F8B1F8C1F8D1F8A2BF5
:1012A600000E8B238C238D230001B75100018A2564
:1012B6001B6E0001B85100018B211C6E0001B95153
:1012C60000018C211D6E0001BA5100018D211E6E98
:1012D60062EC17F01BC060F01CC061F01DC062F02C
:1012E6004EEC11F060C094F061C095F062C096F0CB
:1012F600000E366E400E376E400E386E94C033F0D8
:1013060095C034F096C035F025EC12F033C091F05C
:1013160034C092F035C093F091C036F092C037F0E9
:1013260093C038F0CEC01BF0CFC01CF051EC18F0C3
:101336001BC033F01CC034F01DC035F025EC12F094
:1013460033C073F034C074F035C075F0FBEC12F0A6
:1013560073C0CEF074C0CFF0DDC082F0DEC083F083
:10136600CEC084F0CFC085F06C0E9DEC13F000016A
:10137600BA510001B9110001B81105E1710E000161
:10138600B75DD8A076D00001B6510001B5110001B5
:10139600B41105E1710E0001B35DD8A045D0000E71
:1013A6000001B76F000EB86F000EB96F000EBA6F6E
:1013B600000E0001B36F000EB46F000EB56F000E85
:1013C600B66F000E0001DE6F000EDD6F000E00012D
:1013D600E06F000EDF6F000E0001CF6F000ECE6FC4
:1013E600DFC082F0E0C083F0CEC084F0CFC085F0CD
:1013F600720E9DEC13F0DDC082F0DEC083F0CEC02D
:1014060084F0CFC085F06C0E9DEC13F00001C14B4B
:10141600C22B000E0001E06F190EDF6FFF0E0001F8
:10142600DE6FF60EDD6F25D0000E0001E06F000EB8
:10143600DF6F000E0001DE6F1E0EDD6F000E000175
:10144600CF6F000ECE6FDFC082F0E0C083F0CEC05B
:1014560084F0CFC085F0720E9DEC13F0DFC082F0F1
:10146600E0C083F0CEC084F0CFC085F0720E9DEC54
:1014760013F0DD0E136E000E146EDF0E156E000EE9
:10148600166ECE0E176E000E186E28EC14F01200B3
:10149600330E0001D06FB30E0001D16F3F0E000175
:1014A600D26F0001C6BF08D00001C65122E1280E46
:1014B6000001C55DD8B01DD00001DB4BDC2BDBC0C5
:1014C60082F0DCC083F0CCC084F0CDC085F0720E13
:1014D6009DEC13F00001D907D8A0DA07D9C082F035
:1014E600DAC083F0CCC084F0CDC085F06C0E9DECE4
:1014F60013F00001C6BF25D00001C65105E1510E0B
:101506000001C55DD8A01DD00001DB07D8A0DC070F
:10151600DBC082F0DCC083F0CCC084F0CDC085F0A7
:10152600720E9DEC13F00001D94BDA2BD9C082F074
:10153600DAC083F0CCC084F0CDC085F06C0E9DEC93
:1015460013F0010E0001B72500018A6F000E00019D
:10155600B82100018B6F000E0001B92100018C6FCC
:10156600000E0001BA2100018D6F0001B351000188
:101576008A5D0001B45100018B590001B55100018B
:101586008C590001B65100018D59D8B075D0B7C03D
:101596008AF0B8C08BF0B9C08CF0BAC08DF00001EB
:1015A6008A1F8B1F8C1F8D1F8A2B000E8B238C236B
:1015B6008D230001B35100018A251B6E0001B45131
:1015C60000018B211C6E0001B55100018C211D6E9E
:1015D6000001B65100018D211E6E62EC17F01BC092
:1015E60060F01CC061F01DC062F04EEC11F060C0EE
:1015F60094F061C095F062C096F0000E366E400E13
:10160600376E400E386E94C033F095C034F096C0F5
:1016160035F025EC12F033C08EF034C08FF035C0B3
:1016260090F08EC042F08FC043F090C044F0CCC022
:101636001BF0CDC01CF051EC18F01BC03FF01CC0D5
:1016460040F01DC041F031EC18F03FC073F040C0CF
:1016560074F041C075F0FBEC12F073C0CCF074C0AE
:10166600CDF0D9C082F0DAC083F0CCC084F0CDC012
:1016760085F06C0E9DEC13F0010E0001B325000100
:101686008A6F000E0001B42100018B6F000E00016D
:10169600B52100018C6F000E0001B62100018D6F8F
:1016A6000001B75100018A5D0001B85100018B5954
:1016B6000001B95100018C590001BA5100018D5940
:1016C600D8B075D0B3C08AF0B4C08BF0B5C08CF07A
:1016D600B6C08DF000018A1F8B1F8C1F8D1F8A2BB1
:1016E600000E8B238C238D230001B75100018A2520
:1016F6001B6E0001B85100018B211C6E0001B9510F
:1017060000018C211D6E0001BA5100018D211E6E53
:1017160062EC17F01BC060F01CC061F01DC062F0E7
:101726004EEC11F060C094F061C095F062C096F086
:10173600000E366E400E376E400E386E94C033F093
:1017460095C034F096C035F025EC12F033C091F018
:1017560034C092F035C093F091C036F092C037F0A5
:1017660093C038F0CCC01BF0CDC01CF051EC18F083
:101776001BC033F01CC034F01DC035F025EC12F050
:1017860033C073F034C074F035C075F0FBEC12F062
:1017960073C0CCF074C0CDF0D9C082F0DAC083F04B
:1017A600CCC084F0CDC085F06C0E9DEC13F000012A
:1017B600BA510001B9110001B81105E1170E000177
:1017C600B75DD8A076D00001B6510001B511000171
:1017D600B41105E1170E0001B35DD8A045D0000E87
:1017E6000001B76F000EB86F000EB96F000EBA6F2A
:1017F600000E0001B36F000EB46F000EB56F000E41
:10180600B66F000E0001DA6F000ED96F000E0001F0
:10181600DC6F000EDB6F000E0001CD6F000ECC6F8B
:10182600DBC082F0DCC083F0CCC084F0CDC085F094
:10183600720E9DEC13F0D9C082F0DAC083F0CCC0F2
:1018460084F0CDC085F06C0E9DEC13F00001C14B09
:10185600C22B000E0001DA6F000ED96F000E0001D8
:10186600DC6F230EDB6F25D0000E0001DC6F000E4F
:10187600DB6FFF0E0001DA6FDD0ED96F000E00017F
:10188600CD6F000ECC6FDBC082F0DCC083F0CCC025
:1018960084F0CDC085F0720E9DEC13F0D9C082F0B5
:1018A600DAC083F0CCC084F0CDC085F06C0E9DEC20
:1018B60013F0D90E136E000E146EDB0E156E000EAD
:1018C600166ECC0E176E000E186E28EC14F0120071
:1018D600D3508F0B6009D36EF292F19CF2889380FD
:1018E6000F013991618090EC17F051EC16F0000E63
:1018F60000019F6F000EA06F000EA16F000EA26F79
:10190600000E0001A76F000EA86F000EA96F000E53
:10191600AA6F000E0001AB6F000EAC6F000EAD6F2C
:10192600000EAE6F000E0001A46F000EA36F000E36
:101936000001A66F000EA56F97EC15F02A0E1F6E1C
:10194600100E206EBFC021F0C0C022F04EEC10F089
:10195600E80E0001A7250001976F030E0001A821DC
:101966000001986F000E0001A9210001996F000E79
:101976000001AA2100019A6F0001AF510001975D95
:101986000001B051000198590001B1510001995967
:101996000001B25100019A59D8B046D00001C95190
:1019A6000001D8A422D0C5EC18F0AFC0A7F0B0C093
:1019B600A8F0B1C0A9F0B2C0AAF01B0E1F6E100E9F
:1019C600206EC3C021F0C4C022F04EEC10F0BDEC76
:1019D60018F00B0E1F6E100E206EC5C021F0C6C08B
:1019E60022F04EEC10F0010E1DD0AFC0A7F0B0C033
:1019F600A8F0B1C0A9F0B2C0AAF0C5EC18F0350E37
:101A06001F6E100E206EBFC021F0C0C022F04EEC3B
:101A160010F0BDEC18F03F0E1F6E100E206E4EEC4F
:101A260010F0000E0001C96FD3C097F0D4C098F033
:101A3600000E000198BFFF0E996F9A6F00019F512B
:101A46000001972500019B6F0001A051000198211C
:101A560000019C6F0001A1510001992100019D6FB9
:101A66000001A25100019A2100019E6F0001AF51B1
:101A760000019B5D0001B05100019C590001B1516C
:101A860000019D590001B25100019E59D8B00AD0FB
:101A9600AFC09FF0B0C0A0F0B1C0A1F0B2C0A2F03C
:101AA600EDEC16F0F40E0001AB250001976F010E68
:101AB6000001AC210001986F000E0001AD2100016C
:101AC600996F000E0001AE2100019A6F0001AF511F
:101AD6000001975D0001B051000198590001B15114
:101AE600000199590001B25100019A59D8B030D776
:101AF600ABC097F0ACC098F0ADC099F0AEC09AF00C
:101B06000001971F981F991F9A1F972B000E982365
:101B160099239A230001AF51000197251B6E0001FE
:101B2600B051000198211C6E0001B15100019921AC
:101B36001D6E0001B25100019A211E6E62EC17F073
:101B46001BC036F01CC037F01DC038F0C00E276E23
:101B5600280E286E450E296EA5C09BF0A6C09CF0E7
:101B6600000E00019CBFFF0E9D6F9E6F00019B1F24
:101B76009C1F9D1F9E1F9B2B000E9C239D239E2317
:101B86000001B75100019B251B6E0001B8510001F1
:101B96009C211C6E0001B95100019D211D6E0001A2
:101BA600BA5100019E211E6E62EC17F01BC024F094
:101BB6001CC025F01DC026F0AAEC14F024C033F09A
:101BC60025C034F026C035F024EC15F033C073F090
:101BD60034C074F035C075F0FBEC12F073C0C5F07C
:101BE60074C0C6F0ABC097F0ACC098F0ADC099F029
:101BF600AEC09AF00001971F981F991F9A1F972B46
:101C0600000E982399239A230001AF5100019725CE
:101C16001B6E0001B051000198211C6E0001B151EC
:101C2600000199211D6E0001B25100019A211E6E1C
:101C360062EC17F01BC036F01CC037F01DC038F040
:101C4600C00E276E280E286E450E296EA3C09BF087
:101C5600A4C09CF0000E00019CBFFF0E9D6F9E6FFE
:101C660000019B1F9C1F9D1F9E1F9B2B000E9C23EC
:101C76009D239E230001B35100019B251B6E00018D
:101C8600B45100019C211C6E0001B55100019D213B
:101C96001D6E0001B65100019E211E6E62EC17F00A
:101CA6001BC024F01CC025F01DC026F0AAEC14F0C1
:101CB60024C033F025C034F026C035F024EC15F0EE
:101CC60033C073F034C074F035C075F0FBEC12F01D
:101CD60073C0C3F074C0C4F0AFC0ABF0B0C0ACF01A
:101CE600B1C0ADF0B2C0AEF0B7C0A5F0B8C0A6F0B6
:101CF600B3C0A3F0B4C0A4F02BD6000E0001D46F7D
:101D0600640ED36F000E0001D06F800E0001D16FFC
:101D16003F0E0001D26FBBC08AF0BCC08BF0BDC0C5
:101D26008CF0BEC08DF000018A1F8B1F8C1F8D1F8B
:101D36008A2B000E8B238C238D230001AF510001CB
:101D46008A2500018E6F0001B05100018B21000130
:101D56008F6F0001B15100018C210001906F0001CD
:101D6600B25100018D210001916FB7C013F0B8C0C8
:101D760014F0B9C015F0BAC016F0240E176E000E96
:101D8600186E000E196E000E1A6EBCEC17F00001EC
:101D96008E51135C00018F51145800019051155853
:101DA600000191511658D8B011D0020E0001D72764
:101DB600000ED823D7C082F0D8C083F0000E0001F1
:101DC600856F000E846F720E9DEC13F0BBC08AF017
:101DD600BCC08BF0BDC08CF0BEC08DF000018A1F68
:101DE6008B1F8C1F8D1F8A2B000E8B238C238D231C
:101DF6000001AF5100018A2500018E6F0001B0512C
:101E060000018B2100018F6F0001B15100018C216F
:101E16000001906F0001B25100018D210001916F08
:101E2600B3C013F0B4C014F0B5C015F0B6C016F0C8
:101E3600280E176E000E186E000E196E000E1A6E22
:101E4600BCEC17F000018E51135C00018F51145841
:101E5600000190511558000191511658D8B010D074
:101E6600020E0001D527000ED623D5C082F0D6C0BB
:101E760083F0C7C084F0C8C085F06C0E9DEC13F0EB
:101E8600B7C013F0B8C014F0B9C015F0BAC016F058
:101E9600240E176E000E186E000E196E000E1A6EC6
:101EA600BCEC17F0BBC08AF0BCC08BF0BDC08CF098
:101EB600BEC08DF000018A1F8B1F8C1F8D1F8A2BC1
:101EC600000E8B238C238D230001AF5100018A2540
:101ED60000018E6F0001B05100018B2100018F6F50
:101EE6000001B15100018C210001906F0001B25137
:101EF60000018D210001916F135000018E5D145079
:101F060000018F5915500001905916500001915942
:101F1600D8B011D00001FE0ED727FF0ED823D7C0A8
:101F260082F0D8C083F0000E0001856F000E846F2A
:101F3600720E9DEC13F0B3C013F0B4C014F0B5C02C
:101F460015F0B6C016F0280E176E000E186E000EAD
:101F5600196E000E1A6EBCEC17F0BBC08AF0BCC03E
:101F66008BF0BDC08CF0BEC08DF000018A1F8B1FA8
:101F76008C1F8D1F8A2B000E8B238C238D23000133
:101F8600AF5100018A2500018E6F0001B05100019A
:101F96008B2100018F6F0001B15100018C210001DE
:101FA600906F0001B25100018D210001916F135015
:101FB60000018E5D145000018F5915500001905993
:101FC600165000019159D8B010D00001FE0ED52749
:101FD600FF0ED623D5C082F0D6C083F0C7C084F0EA
:101FE600C8C085F06C0E9DEC13F00001BA510001DB
:101FF600B91108E1EE0E0001B75D020E0001B859F5
:10200600D8A03AD0000E0001B76F000EB86F000ED0
:10201600B96F000EBA6F000E0001B36F000EB46FF9
:10202600000EB56F000EB66F000E0001D66F000EE3
:10203600D56F000E0001D86F000ED76F000E00019D
:10204600CB6F000ECA6FD7C082F0D8C083F0CAC06B
:1020560084F0CBC085F0720E9DEC13F0D5C082F0F3
:10206600D6C083F0CAC084F0CBC085F06C0E9DEC60
:1020760013F00001C14BC22BD50E136E000E146E69
:10208600D70E156E000E166ECA0E176E000E186E5F
:1020960028EC14F01200210E276E000E286EEED0EA
:1020A600250E2F18D8B404D02F50D3EC18F0E6D054
:1020B600000E2E6E000E2D6E000E2A6E1FC0F6FF4D
:1020C60020C0F7FF0800F55092EC18F0D8A032D0E7
:1020D600000E2E6E000E2D6E2DC013F02EC014F0C5
:1020E600000E166E0A0E156E6DEC18F013C02DF06C
:1020F60014C02EF0D00E236EFF0E246E1FC0F6FF06
:1021060020C0F7FF0800F550256E266A23502526C5
:102116002450262225502D2626502E221F4A202ABC
:102126001FC0F6FF20C0F7FF0800F55092EC18F02C
:10213600D8B0D2D71FC0F6FF20C0F7FF1F4A202A0B
:102146000800F5CF2FF02F50000AD8B41200640A09
:10215600D8B403D00D0AD8A491D027C0D9FF28C07F
:10216600DAFFDECF2BF0DDCF2CF0020E2726000E95
:1021760028222CAE06D0030E2A122B6C2C1ED8B0A9
:102186002C2A010E2F6E050E2F18D8B412D02F5000
:10219600020D010EF324F66E100EF420F76E090000
:1021A600F5502B5C0900F5502C58D8A002D02F2AE8
:1021B600EAD72D502E10D8B409D02AC023F0030E2A
:1021C6002316D8B403D02D06D8A02E06800E2FBE17
:1021D6007F0E236E2D502F5C2E50800A2358D8B0C8
:1021E60007D02F502D5E000E2FBEFF0E2E5A04D0A4
:1021F600000E2E6E000E2D6E2D502E10D8B40AD065
:10220600200ED3EC18F02D06D8A02E062D502E1039
:10221600D8A4F6D72AC023F0030E2316D8B403D0C9
:102226002D0ED3EC18F02FC029F024D02950020D22
:10223600010EF324F66E100EF420F76E0900F5CFAA
:1022460015F00A00F5CF16F02BC013F02CC014F0D1
:10225600E7EC17F013C01AF014C01BF0000E1D6E49
:102266000A0E1C6E10EC18F01A50300F2F6E2F50FD
:10227600D3EC18F029062928D8A4D8D71FC0F6FF12
:1022860020C0F7FF1F4A202A0800F5CF2FF02F5055
:10229600D8B4120005D7000E136E000E146E000E91
:1022A600156E60C016F061C017F062C018F0A5EC9C
:1022B60016F0D8A011D0000162AF04D0000E4C6E0B
:1022C600210E4B6E000E0001606F000E0001616F63
:1022D600000E0001626F120060C069F061C06AF012
:1022E60062C06BF060C063F061C064F062C065F00C
:1022F6000001631F641F651F632B000E64236523A3
:10230600C80E000163250001706F6E0E0001642186
:102316000001716FBE0E000165210001726F0001A0
:10232600D890723371337033000E0001695F800EEE
:1023360000016A5B000E00016B5B040E00016C6F0E
:1023460070C066F071C067F072C068F070C024F0AB
:1023560071C025F072C026F069C027F06AC028F067
:102366006BC029F0AAEC14F024C06DF025C06EF005
:1023760026C06FF06DC024F06EC025F06FC026F049
:1023860070C027F071C028F072C029F0AAEC14F0D2
:1023960024C06DF025C06EF026C06FF06DC024F02D
:1023A6006EC025F06FC026F070C027F071C028F00F
:1023B60072C029F0AAEC14F024C06DF025C06EF0AE
:1023C60026C06FF070C024F071C025F072C026F0F0
:1023D600000E276EC00E286E3F0E296EAAEC14F072
:1023E60024C070F025C071F026C072F070C03FF0B6
:1023F60071C040F072C041F06DC042F06EC043F053
:102406006FC044F031EC18F03FC070F040C071F07E
:1024160041C072F000016C2F93D770C024F071C0D8
:1024260025F072C026F060C027F061C028F062C0B7
:1024360029F0AAEC14F024C060F025C061F026C093
:1024460062F0120035C039F03A6A3B6A34343936E4
:1024560001E33A8039503E6E38C039F03A6A3B6A39
:102466003734393601E33A8039503D6E3E50D8B4A0
:102476000BD03D503E5CD8B00ED03E5000083D24F7
:10248600396E180E396407D036C033F037C034F0D1
:1024960038C035F012003D50D8B40BD03E503D5CEC
:1024A600D8B00ED03D5000083E24396E180E39645F
:1024B60007D033C033F034C034F035C035F01200E5
:1024C600060E3C6E35BE3C8E38BE3C8C348EFF0EFE
:1024D6003316FF0E3416000E3516378EFF0E3616DF
:1024E600FF0E3716000E38163D503E5CD8B01BD096
:1024F600D8903636373638363D063E503D18D8B475
:102506000DD03C063CC039F0070E3916D8B406D0BB
:10251600EFD7D8903532343233323E2A3D503E180A
:10252600D8B41FD0F6D73E503D5CD8B01AD0D8905C
:102536003336343635363E063E503D18D8B40DD0C7
:102546003C063CC039F0070E3916D8B406D0EFD792
:10255600D8903832373236323D2A3D503E18D8A40C
:10256600F7D73CAE0CD0FF0E331AFF0E341AFF0E0F
:10257600351A010E3326000E3422000E35223CACED
:102586000CD0FF0E361AFF0E371AFF0E381A010E40
:102596003626000E3722000E3822000E3C6E3350CF
:1025A6003626345037223550382238AE0ED0FF0E3C
:1025B600361AFF0E371AFF0E381A010E3626000E8F
:1025C6003722000E3822010E3C6E36C013F037C09B
:1025D60014F038C015F03EC016F03CC017F0FAEC07
:1025E60015F013C033F014C034F015C035F01200E6
:1025F60075C077F00001786B796B000174350001C6
:10260600773701E37881000177510001816F00017E
:102616008151D8A40AD0000E0001736F000E746FAA
:10262600000E756F000E766F1200170E0001776FA1
:1026360073C078F074C079F075C07AF0000177291C
:1026460000017B6F05D00001D8907A337933783357
:1026560000017B2FF8D70001785100017C6F000143
:10266600748FFF0E00017317FF0E00017417000E22
:10267600000175170001735100017D6F000174514F
:1026860000017E6F0001755100017F6F0001806BB4
:102696008E0E0001815F000181AF1AD000018151C9
:1026A600800A8F0FD8B00AD0000E0001736F000E9B
:1026B600746F000E756F000E766F12000001D890D1
:1026C60080337F337E337D330001813FF7D71BD0C4
:1026D600170E0001816512D0000E0001736F000E07
:1026E600746F000E756F000E766F12000001D890A1
:1026F6007D377E377F3780370001810700018151A2
:102706000001D8A4F3D700017C510001D8B409D048
:102716000001801F7F1F7E1F7D6D000E7E237F239D
:1027260080237DC073F07EC074F07FC075F080C0DA
:1027360076F012000001896F720E00018919D8A483
:102746002ED0800E366E330E376E440E386ED0C0E5
:1027560027F0D1C028F0D2C029F082C01BF083C078
:102766001CF051EC18F01BC024F01CC025F01DC055
:1027760026F0AAEC14F024C033F025C034F026C0AD
:1027860035F025EC12F033C073F034C074F035C068
:1027960075F0FBEC12F073C049F074C04AF06C0E91
:1027A60000018919D8A41200D0C027F0D1C028F0A2
:1027B600D2C029F082C01BF083C01CF051EC18F087
:1027C6001BC024F01CC025F01DC026F0AAEC14F096
:1027D60024C036F025C037F026C038F084C01BF080
:1027E60085C01CF051EC18F01BC033F01CC034F04F
:1027F6001DC035F025EC12F033C03FF034C040F078
:1028060035C041F080EC18F03FC086F040C087F03C
:1028160041C088F0000E366E370E376E440E386EA5
:1028260086C033F087C034F088C035F025EC12F04E
:1028360033C073F034C074F035C075F0FBEC12F0A1
:1028460073C047F074C048F0120013C0D9FF14C01B
:10285600DAFF010EDBBE0FD0010EDB5004E13C0EA9
:10286600DE5CD8A008D013C0D9FF14C0DAFF3C0E36
:10287600DE6E000EDD6E13C0D9FF14C0DAFF010E46
:10288600DBAE0ED0C50EDE5CFF0EDE58D8B008D02B
:1028960013C0D9FF14C0DAFFC40EDE6EFF0EDD6E64
:1028A60015C0D9FF16C0DAFF010EDBBE0FD0010E30
:1028B600DB5004E13C0EDE5CD8A008D015C0D9FF81
:1028C60016C0DAFF3C0EDE6E000EDD6E15C0D9FFB7
:1028D60016C0DAFF010EDBAE0ED0C50EDE5CFF0EB3
:1028E600DE58D8B008D015C0D9FF16C0DAFFC40E1E
:1028F600DE6EFF0EDD6E17C0D9FF18C0DAFF010EBF
:10290600DBBE0FD0010EDB5004E1330EDE5CD8A037
:1029160008D017C0D9FF18C0DAFF320EDE6E000EDF
:10292600DD6E17C0D9FF18C0DAFF010EDBAE12004C
:10293600CE0EDE5CFF0EDE58D8B0120017C0D9FFEF
:1029460018C0DAFFCE0EDE6EFF0EDD6E120026C058
:102956002AF02B6A2C6A25342A3601E32B802A506A
:102966002D6E2D50D8A407D0000E246E000E256EB5
:10297600000E266E120029C02AF02B6A2C6A283413
:102986002A3601E32B802A50326E3250D8A407D063
:10299600000E246E000E256E000E266E12003250BA
:1029A6007B0F2D2626C032F02950321A800E3216A1
:1029B600258E288EFF0E2716FF0E2816000E2916C6
:1029C600000E2E6E000E2F6E000E306E070E316E4C
:1029D60024A006D027502E2628502F2229503022F8
:1029E600D890263225322432D890273628362936F2
:1029F600312EEED7090E316E24A006D027502E2692
:102A060028502F2229503022D890263225322432BF
:102A1600D89030322F322E32312EEED72EC013F010
:102A26002FC014F030C015F02DC016F032C017F0CC
:102A3600FAEC15F013C024F014C025F015C026F0EA
:102A4600120035C039F03A6A3B6A3434393601E34C
:102A56003A803950406E4050D8A407D0000E336EED
:102A6600000E346E000E356E120038C039F03A6A28
:102A76003B6A3734393601E33A803950416E41506A
:102A8600D8A407D0000E336E000E346E000E356EDD
:102A96001200000E3D6E000E3E6E000E3F6E41505F
:102AA600890F405E35C041F03850411A800E4116FC
:102AB600348EFF0E3316FF0E3416000E3516378E83
:102AC600FF0E3616FF0E3716000E3816180E3C6E21
:102AD600D8903D363E363F363650335C3750345804
:102AE60038503558D8A007D03650335E3750345A50
:102AF6003850355A3D80D8903336343635363C2EEC
:102B0600E7D73DC013F03EC014F03FC015F040C0FB
:102B160016F041C017F0FAEC15F013C033F014C0EC
:102B260034F015C035F01200000E926E9690969213
:102B360096948D908D928D84210E146E760EE82ECD
:102B4600FED7142EFCD700D0300ECDEC18F0270E91
:102B5600146EF50EE82EFED7142EFCD700F0300EBC
:102B6600CDEC18F0270E146EF50EE82EFED7142EB7
:102B7600FCD700F0300ECDEC18F0270E146EF50ED3
:102B8600E82EFED7142EFCD700F0380ECDEC18F048
:102B9600270E146EF50EE82EFED7142EFCD700F085
:102BA600080ECDEC18F0270E146EF50EE82EFED7A3
:102BB600142EFCD700F0010ECDEC18F0270E146E83
:102BC600F50EE82EFED7142EFCD700F0060ECDEC3F
:102BD60018F0270E146EF50EE82EFED7142EFCD72D
:102BE60000F00F0ECDEC18F0A1EC18F01200165004
:102BF600D8B405D0135014101510D8A40CD0000E5C
:102C0600136E000E146E000E156E1200162AD89062
:102C1600153214321332000E1314186E000E1414EB
:102C2600196EFE0E15141A6E185019101A10D8B413
:102C36000CD0ECD7162A010E1326000E1422000E15
:102C46001522D890153214321332000E1314186E52
:102C5600000E1414196EFF0E15141A6E1850191062
:102C66001A10D8B406D0E6D71606D89013361436FE
:102C7600153614BE03D0020E1660F6D716A0149EA3
:102C8600D8901632165015121750D8A4158E13C0A8
:102C960013F014C014F015C015F01200F29E000EC9
:102CA600CD6E3F0ECD16CD50CF0B2009CD6E000E4A
:102CB6000F014E6F3F0E0F014E170F014E51CF0BF6
:102CC60020094E6F000E0F015D6F000E666E0F013C
:102CD6005D51F00B0A095D6F6650F00B0A09666ECE
:102CE6003F0E0F0149170F014951E70B1009496FB4
:102CF600020E0F015F6FA30E5E6F020E686EA30ECB
:102D0600676E7A80A0809D82000EBA6EBA50FC0B68
:102D16000209BA6EBA847D0EBB6EF28EF28C000E7C
:102D2600CF6E000ECE6E000E0F01506F000E4F6F6D
:102D3600CD800F014E81F28E95909592000E0F0177
:102D46003B6F120015AE16D013C019F014C01AF05E
:102D560015C01BF0191E1A1E1B1E192A000E1A2258
:102D66001B22000E1924136E000E1A20146E800EFC
:102D76001B20156E18AE16D016C019F017C01AF023
:102D860018C01BF0191E1A1E1B1E192A000E1A2225
:102D96001B22000E1924166E000E1A20176E800EC6
:102DA6001B20186E000E131A000E141A800E151A28
:102DB600000E161A000E171A800E181A1650135CFB
:102DC6001750145818501558D8B002D0D890120081
:102DD600D88012000001BF510001C11928E100018D
:102DE600C0510001C219D8B4120021D023EC08F05A
:102DF60012004BEC0AF012000001BB510001BC119D
:102E06000001BD110001BE11D8A408D0AFC0BBF0AF
:102E1600B0C0BCF0B1C0BDF0B2C0BEF080EC0EF0E8
:102E260012004BEC0AF0120023EC08F01200BFC0AF
:102E360045F0C0C046F04650000AD8A412004550DE
:102E4600010AD8B4D3D7030AD8B4D3D7010AD8B461
:102E5600D3D7070AD8B4E5D7010AD8A41200E4D715
:102E660000EEAFF0210EEE6AE806FDE14C6A4B6A11
:102E7600680EF66E310EF76E000EF86E00EED0F0AC
:102E860010EE11F00900F5CFEEFFE550E150FAE142
:102E9600B00EF66E310EF76E000EF86E00EE47F0CD
:102EA60010EE04F00900F5CFEEFFE550E150FAE12F
:102EB6004D904D92000EF86E00016BEF0CF08E0EE9
:102EC600236E06D0D8901E321D321C321B32232AA6
:102ED600000E1B141F6E000E1C14206E000E1D1417
:102EE600216EFF0E1E14226E1F502010211022107C
:102EF600D8A4E8D71BC013F01CC014F01DC015F0F1
:102F060023C016F0000E176EFAEC15F013C01BF076
:102F160014C01CF015C01DF012000F01428F0F01E6
:102F2600429D0F014251CF0B1009426F93820F0150
:102F36003983788E789C789A788878867884030E98
:102F4600781277887794779093860F013987798EF0
:102F5600799C799A7988798679847950FC0B02096B
:102F6600796E778A77967792A19CA19AA08AA08C8F
:102F76001200000E1B6E000E1C6E000E1D6E000E63
:102F86001E6E13A008D017501B2618501C2219506D
:102F96001D221A501E22D8901736183619361A36A0
:102FA600D8901632153214321332135014101510ED
:102FB6001610D8A4E6D71BC013F01CC014F01DC011
:102FC60015F01EC016F01200000E186E000E176ED9
:102FD60015501610D8B41CD0010E196E04D0D89016
:102FE60015361636192A16AEFAD7D8901736183669
:102FF6001550135C16501458D8A005D01550135E02
:103006001650145A1780D89016321532192EEDD74D
:1030160017C013F018C014F012001C501D10D8B4BD
:1030260018D0010E1E6E04D0D8901C361D361E2AEE
:103036001DAEFAD71C501A5C1D501B58D8A004D0E0
:103046001C501A5E1D501B5AD8901D321C321E2E63
:10305600F1D71AC01AF01BC01BF0120042504310E1
:103066004410D8B406D0000E421A000E431A800E41
:10307600441A3FC033F040C034F041C035F042C07E
:1030860036F043C037F044C038F025EC12F033C0B8
:103096003FF034C040F035C041F01200000E1E6E05
:1030A6001CAE06D01B6C1C1ED8B01C2A010E1E6E50
:1030B6001BC013F01CC014F0156A8E0E166E1EC0CF
:1030C60017F0FAEC15F013C01BF014C01CF015C075
:1030D6001DF0120013501502F3CF17F0F4CF18F0BD
:1030E60013501602F350182614501502F3501826E2
:1030F60017C013F018C014F012003F5040104110D2
:10310600D8B406D0000E3F1A000E401A800E411A9F
:103116003FC03FF040C040F041C041F01200156E84
:10312600000E146E3A0E156005D02F0E156402D0EF
:10313600010E146E14C013F013301200928E8D908F
:103146008D828D948D8480BEFCD78D84929E1200D4
:10315600146E8D808D921450CDEC18F0A1EC18F001
:10316600120033B33F64001E001E00ECFF28001E51
:033176000019003D
:10317A008D908D92C00ECDEC18F0A1EC18F01200D3
:10318A008D908D92010ECDEC18F0A1EC18F0120082
:10319A00136E13C089FF8D948D841200156E15501D
:0A31AA00ABEC18F01200DC02CE02BC
:020000040020DA
:08000000FFFFFFFFFFFFFFFF00
:020000040030CA
:0E000000FF281E3CFFAC85FF0FC00FE00F4035
:00000001FF
