:040000009AEF00F083
:100008004E82FACF03F0FBCF04F0E9CF05F0EACF38
:1000180006F0E1CF07F0E2CF08F0D9CF09F0DACF48
:100028000AF0F3CF0BF0F4CF0CF0F6CF0DF0F7CFCA
:100038000EF0F8CF0FF0F5CF10F0A0B0A1A01FD0B0
:10004800A0908CA210D08C9267CF01F068CF02F0FC
:10005800011E021E014A022A400E0124676E1F0E6D
:100068000220686E05D08C824AC067FF4BC068FFCB
:10007800000E0F01506F000E4F6FA190A0807AB054
:100088007BA020D07A908CA012D08C905ECF01F00B
:100098005FCF02F0011E021E014A022A400E01240F
:1000A8000F015E6F1F0E02200F015F6F05D08C805D
:1000B8004CC05EFF4DC05FFF000ECF6E000ECE6ECF
:1000C8007B907A80A1BAA0AA09D0010E3F26000E23
:1000D80040224122422278CF11F0A19A9DB29EA2DD
:1000E80007D0010E3726000E382239223A229E9276
:1000F80010C0F5FF0FC0F8FF0EC0F7FF0DC0F6FFE8
:100108000CC0F4FF0BC0F3FF0AC0DAFF09C0D9FF27
:1001180008C0E2FF07C0E1FF06C0EAFF05C0E9FF2B
:1001280004C0FBFF03C0FAFF4E921100B7EF0BF0BB
:101000000001000A006400E80310274576656E744D
:101010003A202533640053706565643A20256400E6
:0110200000CF
:10102200D3508F0B4009D36ED4EC0BF0B6EC0AF020
:1010320093880F013999000E0001606F000E616FF5
:10104200000E626F000E636F000E0001646F000EEF
:10105200656F000E666F000E676F000E00016C6F09
:10106200000E6D6F000E6E6F000E6F6F000E0001AE
:10107200696F000E686F000E00016B6F000E6A6FE1
:1010820053EC0AF00B0E1E6E100E1F6E45C020F0C0
:10109200216A53EC09F0880E000164252F6E130EAD
:1010A20000016521306E000E00016621316E000ED6
:1010B20000016721326E37502F5C3850305839505A
:1010C20031583A503258D8B014D025EC0CF0160EE4
:1010D2001E6E100E1F6E48C020F049C021F053EC66
:1010E20009F037C064F038C065F039C066F03AC024
:1010F20067F037C060F038C061F039C062F03AC0C2
:1011020063F0E80E00016C252F6E030E00016D21C5
:10111200306E000E00016E21316E000E00016F2153
:10112200326E37502F5C38503058395031583A505F
:101132003258D8B0B0D76AC02FF06BC030F0000E72
:1011420030BEFF0E316E326E2F1E301E311E321E29
:101152002F2A000E3022312232223F502F24126ECB
:1011620040503020136E41503120146E42503220D4
:10117200156E460E166E050E176E000E186E000ED8
:10118200196E42EC0BF012C01EF013C01FF014C017
:1011920020F015C021F06CC033F06DC034F06EC089
:1011A20035F06FC036F0331E341E351E361E332A1C
:1011B200000E34223522362237503324226E385024
:1011C2003420236E39503520246E3A503620256E55
:1011D20001EC0BF01EC048F01FC049F068C02FF0B0
:1011E20069C030F0000E30BEFF0E316E326E2F1E1F
:1011F200301E311E321E2F2A000E302231223222A0
:101202003B502F24126E3C503020136E3D50312043
:10121200146E3E503220156E460E166E050E176E77
:10122200000E186E000E196E42EC0BF012C01EF08A
:1012320013C01FF014C020F015C021F06CC033F0B1
:101242006DC034F06EC035F06FC036F0331E341E00
:10125200351E361E332A000E3422352236223750EE
:101262003324226E38503420236E39503520246EB8
:101272003A503620256E01EC0BF01EC046F01FC01E
:1012820047F037C06CF038C06DF039C06EF03AC02C
:101292006FF03FC06AF040C06BF03BC068F03CC0EA
:1012A20069F0F9D6200E266E000E276EEED0250EBE
:1012B2002E18D8B404D02E5033EC0CF0E6D0000E29
:1012C2002D6E000E2C6E000E296E1EC0F6FF1FC082
:1012D200F7FF0800F55003EC0CF0D8A032D0000E56
:1012E2002D6E000E2C6E2CC012F02DC013F0000ECD
:1012F200156E0A0E146EF0EC0BF012C02CF013C037
:101302002DF0D00E226EFF0E236E1EC0F6FF1FC000
:10131200F7FF0800F550246E256A22502426235038
:10132200252224502C2625502D221E4A1F2A1EC05B
:10133200F6FF1FC0F7FF0800F55003EC0CF0D8B021
:10134200D2D71EC0F6FF1FC0F7FF1E4A1F2A080091
:10135200F5CF2EF02E50000AD8B41200640AD8B489
:1013620003D00D0AD8A491D026C0D9FF27C0DAFF36
:10137200DECF2AF0DDCF2BF0020E2626000E27222A
:101382002BAE06D0030E29122A6C2B1ED8B02B2AA4
:10139200010E2E6E050E2E18D8B412D02E50020D4C
:1013A200010EF324F66E100EF420F76E0900F550CC
:1013B2002A5C0900F5502B58D8A002D02E2AEAD771
:1013C2002C502D10D8B409D029C022F0030E2216B9
:1013D200D8B403D02C06D8A02D06800E2EBE7F0EC8
:1013E200226E2C502E5C2D50800A2258D8B007D085
:1013F2002E502C5E000E2EBEFF0E2D5A04D0000E73
:101402002D6E000E2C6E2C502D10D8B40AD0200E4A
:1014120033EC0CF02C06D8A02D062C502D10D8A49D
:10142200F6D729C022F0030E2216D8B403D02D0E0F
:1014320033EC0CF02EC028F024D02850020D010EFF
:10144200F324F66E100EF420F76E0900F5CF14F0B7
:101452000A00F5CF15F02AC012F02BC013F06DEC84
:101462000BF012C019F013C01AF0000E1C6E0A0E17
:101472001B6E96EC0BF01950300F2E6E2E5033EC83
:101482000CF028062828D8A4D8D71EC0F6FF1FC003
:10149200F7FF1E4A1F2A0800F5CF2EF02E50D8B4AF
:1014A200120005D7000E926E9690969296948D90A9
:1014B2008D928D84210E136E760EE82EFED7132E9A
:1014C200FCD700D0300E2DEC0CF0270E136EF50E6B
:1014D200E82EFED7132EFCD700F0300E2DEC0CF0C8
:1014E200270E136EF50EE82EFED7132EFCD700F052
:1014F200300E2DEC0CF0270E136EF50EE82EFED7F3
:10150200132EFCD700F0380E2DEC0CF0270E136EC4
:10151200F50EE82EFED7132EFCD700F0080E2DECA8
:101522000CF0270E136EF50EE82EFED7132EFCD705
:1015320000F0010E2DEC0CF0270E136EF50EE82EC6
:10154200FED7132EFCD700F0060E2DEC0CF0270E62
:10155200136EF50EE82EFED7132EFCD700F00F0EF9
:101562002DEC0CF012EC0CF01200F29E000ECD6E7F
:101572003F0ECD16000E0F014E6F3F0E0F014E179C
:10158200000E0F015D6F000E666E0F015D51F00BD4
:101592000A095D6F6650F00B0A09666E7A80A080B8
:1015A2003F0E0F0149170F014951E70B1009496F0F
:1015B200020E0F015F6FA30E5E6F020E686EA30E26
:1015C200676E9D82000EBA6EBA50FC0B0109BA6EAC
:1015D200BA847D0EBB6EF28EF28C000ECF6E000EC0
:1015E200CE6E000E0F01506F000E4F6FCD800F01B7
:1015F2004E81F28E95909592000E0F013B6F120074
:10160200000E266E000E276E000E286E000E296E4A
:101612002250231024102510D8B42AD0010E2A6E8D
:1016220006D0D89022362336243625362A2A25AEED
:10163200F8D7D890263627362836293622501E5C0F
:1016420023501F582450205825502158D8A009D083
:1016520022501E5E23501F5A2450205A2550215AD0
:101662002680D89025322432233222322A2EE1D704
:1016720026C01EF027C01FF028C020F029C021F08C
:101682001200000E1A6E000E1B6E000E1C6E000E73
:101692001D6E12A008D016501A2617501B22185081
:1016A2001C2219501D22D8901636173618361936B4
:1016B200D890153214321332123212501310141001
:1016C2001510D8A4E6D71AC012F01BC013F01CC024
:1016D20014F01DC015F01200000E186E000E176EE9
:1016E20014501510D8B41CD0010E166E04D0D89028
:1016F20014361536162A15AEFAD7D890173618367C
:101702001450125C15501358D8A005D01450125E14
:101712001550135A1780D89015321432162EEDD761
:1017220017C012F018C013F012001B501C10D8B4CE
:1017320018D0010E1D6E04D0D8901B361C361D2AFF
:101742001CAEFAD71B50195C1C501A58D8A004D0F2
:101752001B50195E1C501A5AD8901C321B321D2E77
:10176200F1D719C019F01AC01AF0120000EE37F0C2
:10177200130EEE6AE806FDE1700EF66E180EF76EB5
:10178200000EF86E00EE4AF010EE04F00900F5CFFC
:10179200EEFFE550E150FAE14E904E92000EF86EE7
:1017A200000111EF08F00F01428F0F01429D0F015E
:1017B2004251CF0B1009426F93820F01398361822C
:1017C200788E789C789A788878867884030E781256
:1017D200778877947790A19AA08AA09C12001250E1
:1017E2001402F3CF16F0F4CF17F012501502F35093
:1017F200172613501402F350172616C012F017C002
:1018020013F01200146E000E136E3A0E146005D01F
:101812002F0E146402D0010E136E13C012F0123098
:101822001200928E8D908D828D948D8480BEFCD715
:101832008D84929E1200136E8D808D9213502DEC2A
:101842000CF012EC0CF012008D908D92010E2DEC2A
:101852000CF012EC0CF01200126E12C089FF8D9483
:101862008D841200146E14501CEC0CF01200B002A5
:02187200A302CF
:020000040020DA
:08000000FFFFFFFFFFFFFFFF00
:020000040030CA
:0E000000FF281E3CFFAC85FF0FC00FE00F4035
:00000001FF
