:04000000A7EF00F076
:100008004C82FACF03F0FBCF04F0E9CF05F0EACF3A
:1000180006F0E1CF07F0E2CF08F0D9CF09F0DACF48
:100028000AF0F3CF0BF0F4CF0CF0F6CF0DF0F7CFCA
:100038000EF0F8CF0FF0F5CF10F0A0B0A1A01ED0B1
:100048008CA210D08C9267CF01F068CF02F0011E0D
:10005800021E014A022A400E0124676E1F0E02206A
:10006800686E05D08C8242C067FF43C068FF000EEF
:100078000F01506F000E4F6FA19047D07AB07BA050
:100088001FD08CA012D08C905ECF01F05FCF02F011
:10009800011E021E014A022A400E01240F015E6F52
:1000A8001F0E02200F015F6F05D08C8044C05EFFD9
:1000B80045C05FFF7B90000ECF6E000ECE6E25D040
:1000C800A1BCA0AC0AD0010E00018B27000E8C2326
:1000D8008D238E2379CF11F0A19CA1BAA0AA0AD0B2
:1000E800010E00018F27000E90239123922378CFD1
:1000F80012F0A19A9DB29EA208D0010E0001872796
:10010800000E882389238A239E9210C0F5FF0FC012
:10011800F8FF0EC0F7FF0DC0F6FF0CC0F4FF0BC0D0
:10012800F3FF0AC0DAFF09C0D9FF08C0E2FF07C021
:10013800E1FF06C0EAFF05C0E9FF04C0FBFF03C0FA
:0A014800FAFF4C9211006AEF13F069
:101000000001000A006400E80310274576656E744D
:101010003A202533640053706565643A20256400E6
:101020004C573A20256420002052573A202564006E
:0110300000BF
:1010320059EF0CF0070E00018B150001606F000ED6
:1010420000018C150001616F000E00018D15000179
:10105200626F000E00018E150001636F0001605186
:10106200000161110001621100016311D8A406D0D0
:1010720000018B07000E8C5B8D5B8E5B000196BFBF
:1010820008D00001965123E1140E0001955DD8B0FD
:101092001ED0020E4826000E4922020E4626000EDF
:1010A200472248C013F049C014F04AC015F04BC0A3
:1010B20016F0720E4AEC13F046C013F047C014F05B
:1010C2004AC015F04BC016F06C0E4AEC13F000014A
:1010D20096BF2CD00001965105E1470E0001955DA7
:1010E200D8A024D0FE0E4826FF0E4922FE0E462628
:1010F200FF0E47224806D8A0490648C013F049C04F
:1011020014F04AC015F04BC016F0720E4AEC13F000
:101112004606D8A0470646C013F047C014F04AC09E
:1011220015F04BC016F06C0E4AEC13F0010E0001E4
:101132008F250001606F000E000190210001616F98
:10114200000E000191210001626F000E0001922148
:101152000001636F00018B510001605D00018C5141
:101162000001615900018D510001625900018E5147
:1011720000016359D8B041D08FC060F090C061F0D7
:1011820091C062F092C063F00001601F611F621F94
:10119200631F602B000E61236223632300018B51C6
:1011A200000160250001646F00018C510001612182
:1011B2000001656F00018D51000162210001666F1F
:1011C20000018E51000163210001676F0001D89078
:1011D2006733663365336433000164514A5E00014C
:1011E20065514B5A46C013F047C014F04AC015F07F
:1011F2004BC016F06C0E4AEC13F0010E00018B2569
:101202000001606F000E00018C210001616F000E71
:1012120000018D210001626F000E00018E2100018C
:10122200636F00018F510001605D00019051000168
:10123200615900019151000162590001925100016E
:101242006359D8B041D08BC060F08CC061F08DC0C2
:1012520062F08EC063F00001601F611F621F631F96
:10126200602B000E61236223632300018F51000172
:1012720060250001646F00019051000161210001AD
:10128200656F00019151000162210001666F00014A
:101292009251000163210001676F0001D89067330A
:1012A200663365336433000164514A260001655197
:1012B2004B2246C013F047C014F04AC015F04BC091
:1012C20016F06C0E4AEC13F00001925100019111DC
:1012D2000001901105E1730E00018F5DD8A055D079
:1012E200000E00018F6F000E906F000E916F000EC6
:1012F200926F000E00018B6F000E8C6F000E8D6FCF
:10130200000E8E6F000E476E000E466E000E496E86
:10131200000E486E0001972B000E4B6E000E4A6EB7
:1013220048C013F049C014F04AC015F04BC016F083
:10133200720E4AEC13F046C013F047C014F04AC0D4
:1013420015F04BC016F06C0E4AEC13F0000E3D6E19
:10135200000E3C6E3DBE06D03D500FE1140E3C5CCB
:10136200D8B00BD0820E0001606FDE0EE82EFED7E1
:10137200602FFCD73C4A3D2AEDD7000E496E1E0E67
:10138200486EFF0E476EE20E466E460E136E000E5C
:10139200146E480E156E000E166E4A0E176E000E73
:1013A200186EE3EC10F01200000196BF08D00001A5
:1013B200965120E10F0E0001955DD8B01BD0484A2E
:1013C200492A48C013F049C014F04AC015F04BC076
:1013D20016F0720E4AEC13F04606D8A0470646C035
:1013E20013F047C014F04AC015F04BC016F06C0E53
:1013F2004AEC13F0000196BF23D00001965105E19B
:101402001F0E0001955DD8A01BD04806D8A0490642
:1014120048C013F049C014F04AC015F04BC016F092
:10142200720E4AEC13F0464A472A46C013F047C0F0
:1014320014F04AC015F04BC016F06C0E4AEC13F0D3
:10144200010E00018F250001606F000E0001902146
:101452000001616F000E000191210001626F000E18
:10146200000192210001636F00018B510001605D58
:1014720000018C510001615900018D510001625936
:1014820000018E5100016359D8B041D08FC060F085
:1014920090C061F091C062F092C063F00001601FE1
:1014A200611F621F631F602B000E6123622363238F
:1014B20000018B51000160250001646F00018C5115
:1014C200000161210001656F00018D51000162215F
:1014D2000001666F00018E51000163210001676FF8
:1014E2000001D89067336633653364330001645179
:1014F2004A5E000165514B5A46C013F047C014F0D2
:101502004AC015F04BC016F06C0E4AEC13F0010EF7
:1015120000018B250001606F000E00018C2100018B
:10152200616F000E00018D210001626F000E00014B
:101532008E210001636F00018F510001605D000187
:10154200905100016159000191510001625900015D
:10155200925100016359D8B041D08BC060F08CC069
:1015620061F08DC062F08EC063F00001601F611FE8
:10157200621F631F602B000E61236223632300013D
:101582008F51000160250001646F0001905100013C
:1015920061210001656F000191510001622100018A
:1015A200666F00019251000163210001676F000123
:1015B200D8906733663365336433000164514A2639
:1015C200000165514B2246C013F047C014F04AC0D7
:1015D20015F04BC016F06C0E4AEC13F0000192515C
:1015E200000191110001901105E11E0E00018F5DB5
:1015F200D8A04BD0000E00018F6F000E906F000E2E
:10160200916F000E926F000E00018B6F000E8C6FB7
:10161200000E8D6F000E8E6F000E476E000E466E2E
:10162200000E496E000E486E48C013F049C014F017
:101632004AC015F04BC016F0720E4AEC13F046C0C9
:1016420013F047C014F04AC015F04BC016F06C0EF0
:101652004AEC13F081B0FED7000E3F6E000E3E6ED4
:101662003FBE06D03F500FE1140E3E5CD8B00BD007
:10167200820E0001606FDE0EE82EFED7602FFCD7CF
:101682003E4A3F2AEDD70001972B460E136E000EFD
:10169200146E480E156E000E166E4A0E176E000E70
:1016A200186EE3EC10F01200000196BF08D00001A2
:1016B20096511FE11E0E0001955DD8B01AD0484A1E
:1016C200492A48C013F049C014F04AC015F04BC073
:1016D20016F0720E4AEC13F0464A472A46C013F03F
:1016E20047C014F04AC015F04BC016F06C0E4AEC1D
:1016F20013F0010E00018F251B6E000E00019021D8
:101702001C6E000E000191211D6E000E000192213F
:101712001E6EA6EC12F01BC033F01CC034F01DC0CC
:1017220035F0000E276EA00E286E3F0E296E8BC07C
:101732001BF08CC01CF08DC01DF08EC01EF0A6ECFC
:1017420012F01BC024F01CC025F01DC026F0F6ECE0
:101752000FF024C036F025C037F026C038F05EEC1A
:1017620012F0D8B00ED04A06D8A04B0646C013F0ED
:1017720047C014F04AC015F04BC016F06C0E4AEC8C
:1017820013F0000E276EA00E286E3F0E296E010E7A
:1017920000018B251B6E000E00018C211C6E000EB9
:1017A20000018D211D6E000E00018E211E6EA6EC21
:1017B20012F01BC024F01CC025F01DC026F0F6EC70
:1017C2000FF024C033F025C034F026C035F08FC0AE
:1017D2001BF090C01CF091C01DF092C01EF0A6EC50
:1017E20012F01BC036F01CC037F01DC038F05EECA2
:1017F20012F0D8B00DD04A4A4B2A46C013F047C067
:1018020014F04AC015F04BC016F06C0E4AEC13F0FF
:10181200000192510001911108E1F40E00018F5D67
:10182200010E00019059D8A034D0000E00018F6F34
:10183200000E906F000E916F000E926F000E00016D
:101842008B6F000E8C6F000E8D6F000E8E6F000E70
:10185200476E000E466E000E496E000E486E48C07E
:1018620013F049C014F04AC015F04BC016F0720EC6
:101872004AEC13F046C013F047C014F04AC015F00A
:101882004BC016F06C0E4AEC13F081B0FED700018B
:10189200972B460E136E000E146E480E156E000E38
:1018A200166E4A0E176E000E186EE3EC10F0120060
:1018B20000019751000AD8B41BEF08F0010AD8B40E
:1018C20073D5030AD8A41200EFD6D3508F0B600948
:1018D200D36ED4EC12F00AEC12F093880F0139990E
:1018E200000E0001776F000E786F000E796F000E08
:1018F2007A6F000E00017B6F000E7C6F000E7D6F11
:10190200000E7E6F000E0001836F000E846F000ECA
:10191200856F000E866F000E0001806F000E7F6FD4
:10192200000E0001826F000E816F50EC11F00B0E61
:101932001F6E100E206E97C021F0226A54EC0EF03A
:10194200FA0E00017B2500016F6F000E00017C2161
:101952000001706F000E00017D210001716F000E09
:1019620000017E210001726F0001875100016F5D4D
:10197200000188510001705900018951000171591B
:1019820000018A5100017259D8B032D0C6EC13F06E
:10199200160E1F6E100E206E95C021F096C022F01A
:1019A20054EC0EF087C07BF088C07CF089C07DF0DB
:1019B2008AC07EF0BEEC13F0200E1F6E100E206E59
:1019C2008BC021F08CC022F08DC023F08EC024F099
:1019D20054EC0EF0280E1F6E100E206E8FC021F0F8
:1019E20090C022F091C023F092C024F054EC0EF08B
:1019F2002C0E0001772500016F6F010E0001782186
:101A02000001706F000E000179210001716F000E5C
:101A120000017A210001726F0001875100016F5DA0
:101A2200000188510001705900018951000171596A
:101A320000018A5100017259D8B00AD087C077F0EC
:101A420088C078F089C079F08AC07AF019EC08F081
:101A5200F40E0001832500016F6F010E0001842145
:101A62000001706F000E000185210001716F000EF0
:101A7200000186210001726F0001875100016F5D34
:101A8200000188510001705900018951000171590A
:101A920000018A5100017259D8B052D783C06FF049
:101AA20084C070F085C071F086C072F000016F1FB3
:101AB200701F711F721F6F2B000E70237123722310
:101AC2000001875100016F251B6E00018851000142
:101AD20070211C6E00018951000171211D6E0001EF
:101AE2008A51000172211E6EA6EC12F01BC036F064
:101AF2001CC037F01DC038F0000E276E960E286EFF
:101B0200440E296E81C073F082C074F0000E000191
:101B120074BFFF0E756F766F0001731F741F751F00
:101B2200761F732B000E74237523762300018F51C9
:101B3200000173251B6E00019051000174211C6E7F
:101B420000019151000175211D6E000192510001A9
:101B520076211E6EA6EC12F01BC024F01CC025F0EC
:101B62001DC026F0F6EC0FF024C033F025C034F08F
:101B720026C035F070EC10F033C060F034C061F074
:101B820035C062F054EC0FF060C095F061C096F081
:101B920083C06FF084C070F085C071F086C072F0AF
:101BA20000016F1F701F711F721F6F2B000E7023B9
:101BB200712372230001875100016F251B6E000102
:101BC2008851000170211C6E0001895100017121B0
:101BD2001D6E00018A51000172211E6EA6EC12F0E8
:101BE2001BC036F01CC037F01DC038F0000E276E47
:101BF200960E286E440E296E7FC073F080C074F07A
:101C0200000E000174BFFF0E756F766F0001731F27
:101C1200741F751F761F732B000E74237523762392
:101C220000018B51000173251B6E00018C510001D4
:101C320074211C6E00018D51000175211D6E000181
:101C42008E51000176211E6EA6EC12F01BC024F00C
:101C52001CC025F01DC026F0F6EC0FF024C033F0B6
:101C620025C034F026C035F070EC10F033C060F0BF
:101C720034C061F035C062F054EC0FF060C093F0F4
:101C820061C094F087C083F088C084F089C085F079
:101C92008AC086F08FC081F090C082F08BC07FF046
:101CA2008CC080F04DD6210E296E000E2A6EEED029
:101CB200250E3118D8B404D03150D4EC13F0E6D04C
:101CC200000E306E000E2F6E000E2C6E1FC0F6FF3F
:101CD20020C0F7FF0800F5509CEC13F0D8A032D0DA
:101CE200000E306E000E2F6E2FC013F030C014F0B5
:101CF200000E166E0A0E156E89EC13F013C02FF04B
:101D020014C030F0D00E256EFF0E266E1FC0F6FFF7
:101D120020C0F7FF0800F550276E286A25502726B5
:101D22002650282227502F26285030221F4A202AA8
:101D32001FC0F6FF20C0F7FF0800F5509CEC13F01F
:101D4200D8B0D2D71FC0F6FF20C0F7FF1F4A202A03
:101D52000800F5CF31F03150000AD8B41200640AFD
:101D6200D8B403D00D0AD8A491D029C0D9FF2AC073
:101D7200DAFFDECF2DF0DDCF2EF0020E2926000E87
:101D82002A222EAE06D0030E2C122D6C2E1ED8B097
:101D92002E2A010E316E050E3118D8B412D03150F0
:101DA200020D010EF324F66E100EF420F76E0900F8
:101DB200F5502D5C0900F5502E58D8A002D0312ADA
:101DC200EAD72F503010D8B409D02CC025F0030E1A
:101DD2002516D8B403D02F06D8A03006800E31BE07
:101DE2007F0E256E2F50315C3050800A2558D8B0B6
:101DF20007D031502F5E000E31BEFF0E305A04D094
:101E0200000E306E000E2F6E2F503010D8B40AD054
:101E1200200ED4EC13F02F06D8A030062F5030102D
:101E2200D8A4F6D72CC025F0030E2516D8B403D0BB
:101E32002D0ED4EC13F031C02BF024D02B50020D18
:101E4200010EF324F66E100EF420F76E0900F5CFA2
:101E520015F00A00F5CF16F02DC013F02EC014F0C5
:101E620000EC13F013C01AF014C01BF0000E1D6E2C
:101E72000A0E1C6E29EC13F01A50300F316E3150DD
:101E8200D4EC13F02B062B28D8A4D8D71FC0F6FF0A
:101E920020C0F7FF1F4A202A0800F5CF31F0315049
:101EA200D8B4120005D762C064F00001656B666B9E
:101EB200000161350001643701E36581000164516D
:101EC20000016E6F00016E51D8A40AD0000E00010D
:101ED200606F000E616F000E626F000E636F120082
:101EE200170E0001646F60C065F061C066F062C0E9
:101EF20067F0000164290001686F05D00001D890E5
:101F02006733663365330001682FF8D700016551E6
:101F12000001696F0001618FFF0E00016017FF0E63
:101F220000016117000E00016217000160510001FB
:101F32006A6F0001615100016B6F00016251000183
:101F42006C6F00016D6B8E0E00016E5F00016EAF53
:101F52001AD000016E51800A8F0FD8B00AD0000E3D
:101F62000001606F000E616F000E626F000E636F02
:101F720012000001D8906D336C336B336A33000169
:101F82006E3FF7D71BD0170E00016E6512D0000E00
:101F92000001606F000E616F000E626F000E636FD2
:101FA20012000001D8906A376B376C376D37000129
:101FB2006E0700016E510001D8A4F3D700016951E8
:101FC2000001D8B409D000016D1F6C1F6B1F6A6D30
:101FD200000E6B236C236D236AC060F06BC061F04E
:101FE2006CC062F06DC063F0120026C02AF02B6A4A
:101FF2002C6A25342A3601E32B802A502D6E2D506F
:10200200D8A407D0000E246E000E256E000E266E98
:10201200120029C02AF02B6A2C6A28342A3601E3DE
:102022002B802A50326E3250D8A407D0000E246E74
:10203200000E256E000E266E120032507B0F2D26EA
:1020420026C032F02950321A800E3216258E288E82
:10205200FF0E2716FF0E2816000E2916000E2E6EF2
:10206200000E2F6E000E306E070E316E24A006D0C9
:1020720027502E2628502F2229503022D89026323F
:1020820025322432D890273628362936312EEED7FB
:10209200090E316E24A006D027502E2628502F225A
:1020A20029503022D890263225322432D89030322C
:1020B2002F322E32312EEED72EC013F02FC014F055
:1020C20030C015F02DC016F032C017F0B3EC11F08D
:1020D20013C024F014C025F015C026F0120035C03C
:1020E20039F03A6A3B6A3434393601E33A8039507E
:1020F200406E4050D8A407D0000E336E000E346EEE
:10210200000E356E120038C039F03A6A3B6A373435
:10211200393601E33A803950416E4150D8A407D094
:10212200000E336E000E346E000E356E1200000E7D
:102132003D6E000E3E6E000E3F6E4150890F405EB6
:1021420035C041F03850411A800E4116348EFF0ED0
:102152003316FF0E3416000E3516378EFF0E361666
:10216200FF0E3716000E3816180E3C6ED8903D360C
:102172003E363F363650335C375034583850355837
:10218200D8A007D03650335E3750345A3850355ABB
:102192003D80D8903336343635363C2EE7D73DC0B5
:1021A20013F03EC014F03FC015F040C016F041C01D
:1021B20017F0B3EC11F013C033F014C034F015C0B3
:1021C20035F0120013C0D9FF14C0DAFF010EDBBED6
:1021D2000FD0010EDB5004E1320EDE5CD8A008D035
:1021E20013C0D9FF14C0DAFF320EDE6E000EDD6EB0
:1021F20013C0D9FF14C0DAFF010EDBAE0ED0CF0E32
:10220200DE5CFF0EDE58D8B008D013C0D9FF14C070
:10221200DAFFCE0EDE6EFF0EDD6E15C0D9FF16C0E0
:10222200DAFF010EDBBE0FD0010EDB5004E1320EED
:10223200DE5CD8A008D015C0D9FF16C0DAFF320E76
:10224200DE6E000EDD6E15C0D9FF16C0DAFF010E7C
:10225200DBAE0ED0CF0EDE5CFF0EDE58D8B008D05B
:1022620015C0D9FF16C0DAFFCE0EDE6EFF0EDD6E90
:1022720017C0D9FF18C0DAFF010EDBBE1200010E33
:10228200DB5004E10B0EDE5CD8A0120017C0D9FFB0
:1022920018C0DAFF0A0EDE6E000EDD6E1200000EAE
:1022A200926E9690969296948D908D928D84210E38
:1022B200146E760EE82EFED7142EFCD700D0300E08
:1022C200CEEC13F0270E146EF50EE82EFED7142E68
:1022D200FCD700F0300ECEEC13F0270E146EF50E84
:1022E200E82EFED7142EFCD700F0300ECEEC13F001
:1022F200270E146EF50EE82EFED7142EFCD700F032
:10230200380ECEEC13F0270E146EF50EE82EFED723
:10231200142EFCD700F0080ECEEC13F0270E146E2C
:10232200F50EE82EFED7142EFCD700F0010ECEECEF
:1023320013F0270E146EF50EE82EFED7142EFCD7DE
:1023420000F0060ECEEC13F0270E146EF50EE82EFA
:10235200FED7142EFCD700F00F0ECEEC13F0ABEC30
:1023620013F012001650D8B405D0135014101510E3
:10237200D8A40CD0000E136E000E146E000E156E53
:102382001200162AD890153214321332000E13148A
:10239200186E000E1414196EFE0E15141A6E1850D3
:1023A20019101A10D8B40CD0ECD7162A010E132625
:1023B200000E1422000E1522D89015321432133258
:1023C200000E1314186E000E1414196EFF0E15145D
:1023D2001A6E185019101A10D8B406D0E6D716067D
:1023E200D89013361436153614BE03D0020E16607A
:1023F200F6D716A0149ED890163216501512175002
:10240200D8A4158E13C013F014C014F015C015F023
:102412001200F29E000ECD6E3F0ECD16CD50CF0BA8
:102422002009CD6E000E0F014E6F3F0E0F014E17A9
:102432000F014E51CF0B20094E6F000E0F015D6F41
:10244200000E666E0F015D51F00B0A095D6F66505A
:10245200F00B0A09666E3F0E0F0149170F01495131
:10246200E70B1009496F020E0F015F6FA30E5E6F3B
:10247200020E686EA30E676E7A80A0809D82000EA7
:10248200BA6EBA50FC0B0209BA6EBA847D0EBB6EEC
:10249200F28EF28C000ECF6E000ECE6E000E0F0189
:1024A200506F000E4F6FCD800F014E81F28E9590CE
:1024B2009592000E0F013B6F120035AE16D033C05D
:1024C20039F034C03AF035C03BF0391E3A1E3B1E9B
:1024D200392A000E3A223B22000E3924336E000EB6
:1024E2003A20346E800E3B20356E38AE16D036C0A0
:1024F20039F037C03AF038C03BF0391E3A1E3B1E65
:10250200392A000E3A223B22000E3924366E000E82
:102512003A20376E800E3B20386E000E331A000EC2
:10252200341A800E351A000E361A000E371A800E33
:10253200381A3650335C3750345838503558D8B082
:1025420002D0D8901200D88012008E0E236E06D0D0
:10255200D8901E321D321C321B32232A000E1B144D
:102562001F6E000E1C14206E000E1D14216EFF0E35
:102572001E14226E1F50201021102210D8A4E8D75A
:102582001BC013F01CC014F01DC015F023C016F0C0
:10259200000E176EB3EC11F013C01BF014C01CF048
:1025A20015C01DF012000F01428F0F01429D0F0155
:1025B2004251CF0B1009426F93820F013983788EFB
:1025C200789C789A788878867884030E781277884F
:1025D2007794779093860F013987798E799C799ACF
:1025E2007988798679847950FC0B0209796E778A29
:1025F20077967792A19CA19AA08AA08C1200000ED5
:10260200186E000E176E15501610D8B41CD0010E9D
:10261200196E04D0D89015361636192A16AEFAD786
:10262200D890173618361550135C16501458D8A087
:1026320005D01550135E1650145A1780D8901632D2
:102642001532192EEDD717C013F018C014F012006E
:102652001C501D10D8B418D0010E1E6E04D0D89094
:102662001C361D361E2A1DAEFAD71C501A5C1D5090
:102672001B58D8A004D01C501A5E1D501B5AD8906B
:102682001D321C321E2EF1D71AC01AF01BC01BF0CD
:102692001200196E720E1918D8A406D0D00E132487
:1026A200446E020E1420456E6C0E1918D8A4120046
:1026B20015501324176E16501420186E171E181E6C
:1026C200174A182ADF0E1724426E020E1820436E94
:1026D200120000EE87F0110EEE6AE806FDE14B6A89
:1026E2004A6AB20EF66E270EF76E000EF86E00EE14
:1026F20042F010EE08F00900F5CFEEFFE550E15090
:10270200FAE14C904C92000EF86E000166EF0CF06C
:1027120013501502F3CF17F0F4CF18F0135016022E
:10272200F350182614501502F350182617C013F050
:1027320018C014F01200156E000E146E3A0E1560D9
:1027420005D02F0E156402D0010E146E14C013F0C2
:1027520013301200928E8D908D828D948D8480BE66
:10276200FCD78D84929E1200146E8D808D9214502F
:10277200CEEC13F0ABEC13F012008D908D92C00EE4
:10278200CEEC13F0ABEC13F012008D908D92010E93
:10279200CEEC13F0ABEC13F01200136E13C089FFF2
:1027A2008D948D841200156E1550B5EC13F0120045
:0827B200DF02D0022300190030
:020000040020DA
:08000000FFFFFFFFFFFFFFFF00
:020000040030CA
:0E000000FF281E3CFFAC85FF0FC00FE00F4035
:00000001FF
