:04000000A7EF00F076
:100008004C82FACF03F0FBCF04F0E9CF05F0EACF3A
:1000180006F0E1CF07F0E2CF08F0D9CF09F0DACF48
:100028000AF0F3CF0BF0F4CF0CF0F6CF0DF0F7CFCA
:100038000EF0F8CF0FF0F5CF10F0A0B0A1A01ED0B1
:100048008CA210D08C9267CF01F068CF02F0011E0D
:10005800021E014A022A400E0124676E1F0E02206A
:10006800686E05D08C8246C067FF47C068FF000EE7
:100078000F01506F000E4F6FA19047D07AB07BA050
:100088001FD08CA012D08C905ECF01F05FCF02F011
:10009800011E021E014A022A400E01240F015E6F52
:1000A8001F0E02200F015F6F05D08C8048C05EFFD5
:1000B80049C05FFF7B90000ECF6E000ECE6E25D03C
:1000C800A1BCA0AC0AD0010E0001C027000EC123BC
:1000D800C223C32379CF11F0A19CA1BAA0AA0AD048
:1000E800010E0001C427000EC523C623C72378CFFD
:1000F80012F0A19A9DB29EA208D0010E0001BC2761
:10010800000EBD23BE23BF239E9210C0F5FF0FC073
:10011800F8FF0EC0F7FF0DC0F6FF0CC0F4FF0BC0D0
:10012800F3FF0AC0DAFF09C0D9FF08C0E2FF07C021
:10013800E1FF06C0EAFF05C0E9FF04C0FBFF03C0FA
:0A014800FAFF4C92110030EF17F09F
:101000000001000A006400E80310274576656E744D
:101010003A202533640053706565643A20256400E6
:101020004C573A20256420002052573A202564006E
:0110300000BF
:101032001BEF0EF00001CBBF08D00001CB5121E124
:10104200140E0001CA5DD8B01CD00001D14BD22BC6
:101052000001CF4BD02BD1C013F0D2C014F0CDC0C1
:1010620015F0CEC016F0720E8DEC17F0CFC013F053
:10107200D0C014F0CDC015F0CEC016F06C0E8DECC1
:1010820017F00001CBBF2ED00001CB5105E1470E76
:101092000001CA5DD8A026D00001D107D8A0D2078E
:1010A2000001CF07D8A0D0070001D107D8A0D207EE
:1010B200D1C013F0D2C014F0CDC015F0CEC016F0DE
:1010C200720E8DEC17F00001CF07D8A0D007CFC069
:1010D20013F0D0C014F0CDC015F0CEC016F06C0ED7
:1010E2008DEC17F0010E0001C4250001936F000E74
:1010F2000001C5210001946F000E0001C62100010C
:10110200956F000E0001C7210001966F0001C051CA
:101112000001935D0001C151000194590001C251C7
:10112200000195590001C35100019659D8B061D010
:10113200C4C093F0C5C094F0C6C095F0C7C096F085
:101142000001931F941F951F961F932B000E94234B
:10115200952396230001C051000193251B6E0001C7
:10116200C151000194211C6E0001C2510001952160
:101172001D6E0001C351000196211E6E5FEC17F037
:101182001BC03CF01CC03DF01DC03EF0ECEC11F069
:101192003CC09EF03DC09FF03EC0A0F09EC033F028
:1011A2009FC034F0A0C035F0CDC01BF0CEC01CF003
:1011B2004FEC18F01BC030F01CC031F01DC032F0F3
:1011C2002FEC18F030C042F031C043F032C044F08E
:1011D200BBEC12F042C0CDF043C0CEF0CFC013F052
:1011E200D0C014F0CDC015F0CEC016F06C0E8DEC50
:1011F20017F0010E0001C0250001936F000E0001DF
:10120200C1210001946F000E0001C2210001956FFF
:10121200000E0001C3210001966F0001C4510001BC
:10122200935D0001C551000194590001C6510001AE
:1012320095590001C75100019659D8B075D0C0C068
:1012420093F0C1C094F0C2C095F0C3C096F0000103
:10125200931F941F951F961F932B000E9423952383
:1012620096230001C451000193251B6E0001C55154
:10127200000194211C6E0001C651000195211D6ED2
:101282000001C751000196211E6E5FEC17F01BC0D2
:101292003CF01CC03DF01DC03EF0ECEC11F03CC037
:1012A200A1F03DC0A2F03EC0A3F0000E276EA00E3A
:1012B200286E400E296EA1C024F0A2C025F0A3C062
:1012C20026F016EC11F024C097F025C098F026C045
:1012D20099F097C027F098C028F099C029F0CDC0A6
:1012E2001BF0CEC01CF04FEC18F01BC024F01CC049
:1012F20025F01DC026F016EC11F024C042F025C0E6
:1013020043F026C044F0BBEC12F042C0CDF043C023
:10131200CEF0CFC013F0D0C014F0CDC015F0CEC0C7
:1013220016F06C0E8DEC17F00001C7510001C611CA
:101332000001C51105E1730E0001C45DD8A091D072
:101342000001C3510001C2110001C11105E1730E78
:101352000001C05DD8A060D0000E0001C46F000E75
:10136200C56F000EC66F000EC76F000E0001C06F82
:10137200000EC16F000EC26F000EC36F000E00019F
:10138200D06F000ECF6F000E0001D26F000ED16F32
:101392000001CC2B000E0001CE6F000ECD6FD1C02C
:1013A20013F0D2C014F0CDC015F0CEC016F0720EFC
:1013B2008DEC17F0CFC013F0D0C014F0CDC015F0F3
:1013C200CEC016F06C0E8DEC17F0000E00019B6F74
:1013D200000E9A6F00019BBF08D000019B5111E1E2
:1013E200140E00019A5DD8B00CD0820E0001936FEA
:1013F200DE0EE82EFED7932FFCD700019A4B9B2BD3
:10140200E9D7000E0001D26F190ED16FFF0E000155
:10141200D06FE20ECF6F25D0000E0001D26F000E0A
:10142200D16F000E0001D06F1E0ECF6F000E0001B3
:10143200CE6F000ECD6FD1C013F0D2C014F0CDC06C
:1014420015F0CEC016F0720E8DEC17F0D1C013F06D
:10145200D2C014F0CDC015F0CEC016F0720E8DECD5
:1014620017F0CF0E136E000E146ED10E156E000E15
:10147200166ECD0E176E000E186E52EC13F012009F
:101482000001CBBF08D00001CB5122E10F0E0001B9
:10149200CA5DD8B01DD00001D14BD22BD1C013F000
:1014A200D2C014F0CDC015F0CEC016F0720E8DEC85
:1014B20017F00001CF07D8A0D007CFC013F0D0C0DB
:1014C20014F0CDC015F0CEC016F06C0E8DEC17F0F6
:1014D2000001CBBF25D00001CB5105E11F0E000159
:1014E200CA5DD8A01DD00001D107D8A0D207D1C0B3
:1014F20013F0D2C014F0CDC015F0CEC016F0720EAB
:101502008DEC17F00001CF4BD02BCFC013F0D0C021
:1015120014F0CDC015F0CEC016F06C0E8DEC17F0A5
:10152200010E0001C4250001936F000E0001C521C8
:101532000001946F000E0001C6210001956F000E9C
:101542000001C7210001966F0001C0510001935DA7
:101552000001C151000194590001C2510001955985
:101562000001C35100019659D8B061D0C4C093F0B4
:10157200C5C094F0C6C095F0C7C096F00001931F95
:10158200941F951F961F932B000E94239523962349
:101592000001C051000193251B6E0001C1510001E1
:1015A20094211C6E0001C251000195211D6E0001A3
:1015B200C351000196211E6E5FEC17F01BC03CF078
:1015C2001CC03DF01DC03EF0ECEC11F03CC09EF0A2
:1015D2003DC09FF03EC0A0F09EC033F09FC034F0EB
:1015E200A0C035F0CDC01BF0CEC01CF04FEC18F0FF
:1015F2001BC030F01CC031F01DC032F02FEC18F0CF
:1016020030C042F031C043F032C044F0BBEC12F0C3
:1016120042C0CDF043C0CEF0CFC013F0D0C014F022
:10162200CDC015F0CEC016F06C0E8DEC17F0010E89
:101632000001C0250001936F000E0001C1210001CD
:10164200946F000E0001C2210001956F000E00018F
:10165200C3210001966F0001C4510001935D000196
:10166200C551000194590001C6510001955900016C
:10167200C75100019659D8B075D0C0C093F0C1C00F
:1016820094F0C2C095F0C3C096F00001931F941F5E
:10169200951F961F932B000E9423952396230001EA
:1016A200C451000193251B6E0001C5510001942114
:1016B2001C6E0001C651000195211D6E0001C7512B
:1016C200000196211E6E5FEC17F01BC03CF01CC09F
:1016D2003DF01DC03EF0ECEC11F03CC0A1F03DC06D
:1016E200A2F03EC0A3F0000E276EA00E286E400EA0
:1016F200296EA1C024F0A2C025F0A3C026F016ECEA
:1017020011F024C097F025C098F026C099F097C038
:1017120027F098C028F099C029F0CDC01BF0CEC0A8
:101722001CF04FEC18F01BC024F01CC025F01DC0AB
:1017320026F016EC11F024C042F025C043F026C07A
:1017420044F0BBEC12F042C0CDF043C0CEF0CFC0AB
:1017520013F0D0C014F0CDC015F0CEC016F06C0E50
:101762008DEC17F00001C7510001C6110001C5112F
:1017720005E1130E0001C45DD8A090D00001C35151
:101782000001C2110001C11105E1130E0001C05D8B
:10179200D8A05FD0000E0001C46F000EC56F000E0E
:1017A200C66F000EC76F000E0001C06F000EC16F42
:1017B200000EC26F000EC36F000E0001D06F000E4C
:1017C200CF6F000E0001D26F000ED16F000E00012C
:1017D200CE6F000ECD6FD1C013F0D2C014F0CDC0C9
:1017E20015F0CEC016F0720E8DEC17F0CFC013F0CC
:1017F200D0C014F0CDC015F0CEC016F06C0E8DEC3A
:1018020017F0000E0001D06F230ECF6F000E000103
:10181200D26F190ED16F0001CC2B000E00019D6F0B
:10182200000E9C6F00019DBF08D000019D5136E162
:10183200140E00019C5DD8B031D0820E0001936F6E
:10184200DE0EE82EFED7932FFCD700019C4B9D2B7A
:10185200E9D7000E0001D26F000ED16FFF0E00011A
:10186200D06FE20ECF6F000E0001CE6F000ECD6F73
:10187200D1C013F0D2C014F0CDC015F0CEC016F016
:10188200720E8DEC17F0D1C013F0D2C014F0CDC09F
:1018920015F0CEC016F0720E8DEC17F0CF0E136E4F
:1018A200000E146ED10E156E000E166ECD0E176E52
:1018B200000E186E52EC13F012000001CBBF08D0DC
:1018C2000001CB5121E1140E0001CA5DD8B01CD039
:1018D2000001D14BD22BD1C013F0D2C014F0CDC035
:1018E20015F0CEC016F0720E8DEC17F00001CF4B42
:1018F200D02BCFC013F0D0C014F0CDC015F0CEC0A5
:1019020016F06C0E8DEC17F0010E0001C4251B6E53
:10191200000E0001C5211C6E000E0001C6211D6EC5
:10192200000E0001C7211E6E5FEC17F01BC033F0E2
:101932001CC034F01DC035F0CD0E276E8C0E286E03
:101942003F0E296EC0C01BF0C1C01CF0C2C01DF00A
:10195200C3C01EF05FEC17F01BC024F01CC025F0C2
:101962001DC026F0D4EC13F024C08DF025C08EF0FB
:1019720026C08FF066EC16F08DC036F08EC037F0C0
:101982008FC038F01EEC16F0D8B061D0C4C093F00E
:10199200C5C094F0C6C095F0C7C096F00001931F71
:1019A200941F951F961F932B000E94239523962325
:1019B2000001C051000193251B6E0001C1510001BD
:1019C20094211C6E0001C251000195211D6E00017F
:1019D200C351000196211E6E5FEC17F01BC03CF054
:1019E2001CC03DF01DC03EF0ECEC11F03CC09EF07E
:1019F2003DC09FF03EC0A0F09EC033F09FC034F0C7
:101A0200A0C035F0CDC01BF0CEC01CF04FEC18F0DA
:101A12001BC030F01CC031F01DC032F02FEC18F0AA
:101A220030C042F031C043F032C044F0BBEC12F09F
:101A320042C0CDF043C0CEF0CFC013F0D0C014F0FE
:101A4200CDC015F0CEC016F06C0E8DEC17F0CD0E99
:101A5200276E8C0E286E3F0E296E010E0001C025E6
:101A62001B6E000E0001C1211C6E000E0001C2217E
:101A72001D6E000E0001C3211E6E5FEC17F01BC02D
:101A820024F01CC025F01DC026F0D4EC13F024C0B5
:101A92008DF025C08EF026C08FF066EC16F08DC05A
:101AA20033F08EC034F08FC035F0C4C01BF0C5C017
:101AB2001CF0C6C01DF0C7C01EF05FEC17F01BC0C3
:101AC20036F01CC037F01DC038F01EEC16F0D8B04E
:101AD20061D0C0C093F0C1C094F0C2C095F0C3C041
:101AE20096F00001931F941F951F961F932B000ED3
:101AF2009423952396230001C451000193251B6E64
:101B02000001C551000194211C6E0001C651000163
:101B120095211D6E0001C751000196211E6E5FECDA
:101B220017F01BC03CF01CC03DF01DC03EF0ECECB9
:101B320011F03CC0A1F03DC0A2F03EC0A3F0A1C094
:101B420027F0A2C028F0A3C029F0CDC01BF0CEC060
:101B52001CF04FEC18F01BC024F01CC025F01DC077
:101B620026F016EC11F024C042F025C043F026C046
:101B720044F0BBEC12F042C0CDF043C0CEF0CFC077
:101B820013F0D0C014F0CDC015F0CEC016F06C0E1C
:101B92008DEC17F00001C7510001C61108E1E80EF3
:101BA2000001C45D030E0001C559D8A034D0000E57
:101BB2000001C46F000EC56F000EC66F000EC76F26
:101BC200000E0001C06F000EC16F000EC26F000E4A
:101BD200C36F000E0001D06F000ECF6F000E000128
:101BE200D26F000ED16FD1C013F0D2C014F0CDC0AD
:101BF20015F0CEC016F0720E8DEC17F0CFC013F0B8
:101C0200D0C014F0CDC015F0CEC016F06C0E8DEC25
:101C120017F00001CC2BCF0E136E000E146ED10EF6
:101C2200156E000E166ECD0E176E000E186E52EC6B
:101C320013F012000001CC51000AD8B41BEF08F0D7
:101C4200010AD8B41DD4030AD8A4120036D6D35040
:101C52008F0B6009D36EB9EC17F07BEC15F093880B
:101C62000F013999000E0001AC6F000EAD6F000E2E
:101C7200AE6F000EAF6F000E0001B06F000EB16FBD
:101C8200000EB26F000EB36F000E0001B86F000EAF
:101C9200B96F000EBA6F000EBB6F000E0001B56F78
:101CA200000EB46F000E0001B76F000EB66FC1ECEC
:101CB20014F00B0E1F6E100E206ECCC021F0226AA3
:101CC20016EC10F0FA0E0001B0250001A46F000E10
:101CD2000001B1210001A56F000E0001B221000137
:101CE200A66F000E0001B3210001A76F0001BC51D5
:101CF2000001A45D0001BD510001A5590001BE51C2
:101D02000001A6590001BF510001A759D8B032D035
:101D1200C0EC18F0160E1F6E100E206ECAC021F015
:101D2200CBC022F016EC10F0BCC0B0F0BDC0B1F0D8
:101D3200BEC0B2F0BFC0B3F0B8EC18F0200E1F6EF8
:101D4200100E206EC0C021F0C1C022F0C2C023F02C
:101D5200C3C024F016EC10F0280E1F6E100E206E79
:101D6200C4C021F0C5C022F0C6C023F0C7C024F011
:101D720016EC10F0640E0001AC250001A46F000EF9
:101D82000001AD210001A56F000E0001AE2100018E
:101D9200A66F000E0001AF210001A76F0001BC5128
:101DA2000001A45D0001BD510001A5590001BE5111
:101DB2000001A6590001BF510001A759D8B00AD0AD
:101DC200BCC0ACF0BDC0ADF0BEC0AEF0BFC0AFF0A5
:101DD20019EC08F0F40E0001B8250001A46F010E01
:101DE2000001B9210001A56F000E0001BA21000116
:101DF200A66F000E0001BB210001A76F0001BC51BC
:101E02000001A45D0001BD510001A5590001BE51B0
:101E12000001A6590001BF510001A759D8B052D7FD
:101E2200B8C0A4F0B9C0A5F0BAC0A6F0BBC0A7F074
:101E32000001A41FA51FA61FA71FA42B000EA523E8
:101E4200A623A7230001BC510001A4251B6E00019B
:101E5200BD510001A5211C6E0001BE510001A62149
:101E62001D6E0001BF510001A7211E6E5FEC17F02D
:101E72001BC036F01CC037F01DC038F0000E276EB4
:101E8200960E286E440E296EB6C0A8F0B7C0A9F00F
:101E9200000E0001A9BFFF0EAA6FAB6F0001A81FC1
:101EA200A91FAA1FAB1FA82B000EA923AA23AB238D
:101EB2000001C4510001A8251B6E0001C55100019B
:101EC200A9211C6E0001C6510001AA211D6E00014C
:101ED200C7510001AB211E6E5FEC17F01BC024F04E
:101EE2001CC025F01DC026F0D4EC13F024C033F042
:101EF20025C034F026C035F04EEC14F033C042F069
:101F020034C043F035C044F0BBEC12F042C0CAF01A
:101F120043C0CBF0B8C0A4F0B9C0A5F0BAC0A6F0D7
:101F2200BBC0A7F00001A41FA51FA61FA71FA42BBB
:101F3200000EA523A623A7230001BC510001A4255E
:101F42001B6E0001BD510001A5211C6E0001BE5196
:101F52000001A6211D6E0001BF510001A7211E6EC6
:101F62005FEC17F01BC036F01CC037F01DC038F014
:101F7200000E276E960E286E440E296EB4C0A8F08D
:101F8200B5C0A9F0000E0001A9BFFF0EAA6FAB6F8A
:101F92000001A81FA91FAA1FAB1FA82B000EA9236F
:101FA200AA23AB230001C0510001A8251B6E00012A
:101FB200C1510001A9211C6E0001C2510001AA21D8
:101FC2001D6E0001C3510001AB211E6E5FEC17F0C4
:101FD2001BC024F01CC025F01DC026F0D4EC13F069
:101FE20024C033F025C034F026C035F04EEC14F096
:101FF20033C042F034C043F035C044F0BBEC12F0C1
:1020020042C0C8F043C0C9F0BCC0B8F0BDC0B9F00E
:10201200BEC0BAF0BFC0BBF0C4C0B6F0C5C0B7F016
:10202200C0C0B4F0C1C0B5F04DD6210E296E000E6D
:102032002A6EEED0250E3118D8B404D03150CEEC31
:1020420018F0E6D0000E306E000E2F6E000E2C6ED1
:102052001FC0F6FF20C0F7FF0800F55096EC18F0FD
:10206200D8A032D0000E306E000E2F6E2FC013F0AB
:1020720030C014F0000E166E0A0E156E83EC18F0C6
:1020820013C02FF014C030F0D00E256EFF0E266E56
:102092001FC0F6FF20C0F7FF0800F550276E286A20
:1020A200255027262650282227502F262850302216
:1020B2001F4A202A1FC0F6FF20C0F7FF0800F55074
:1020C20096EC18F0D8B0D2D71FC0F6FF20C0F7FFA9
:1020D2001F4A202A0800F5CF31F03150000AD8B447
:1020E2001200640AD8B403D00D0AD8A491D029C032
:1020F200D9FF2AC0DAFFDECF2DF0DDCF2EF0020E9F
:102102002926000E2A222EAE06D0030E2C122D6C8A
:102112002E1ED8B02E2A010E316E050E3118D8B4FB
:1021220012D03150020D010EF324F66E100EF4207F
:10213200F76E0900F5502D5C0900F5502E58D8A015
:1021420002D0312AEAD72F503010D8B409D02CC08F
:1021520025F0030E2516D8B403D02F06D8A03006DA
:10216200800E31BE7F0E256E2F50315C3050800ABA
:102172002558D8B007D031502F5E000E31BEFF0E69
:10218200305A04D0000E306E000E2F6E2F503010D9
:10219200D8B40AD0200ECEEC18F02F06D8A0300604
:1021A2002F503010D8A4F6D72CC025F0030E2516D8
:1021B200D8B403D02D0ECEEC18F031C02BF024D0C1
:1021C2002B50020D010EF324F66E100EF420F76E62
:1021D2000900F5CF15F00A00F5CF16F02DC013F067
:1021E2002EC014F0E5EC17F013C01AF014C01BF067
:1021F200000E1D6E0A0E1C6E0EEC18F01A50300FF7
:10220200316E3150CEEC18F02B062B28D8A4D8D73B
:102212001FC0F6FF20C0F7FF1F4A202A0800F5CF93
:1022220031F03150D8B4120005D726C02AF02B6AFB
:102232002C6A25342A3601E32B802A502F6E29C0BE
:102242002AF02B6A2C6A28342A3601E32B802A5082
:102252002E6E2F50D8B40BD02E502F5CD8B00ED08B
:102262002F5000082E242A6E180E2A6407D027C089
:1022720024F028C025F029C026F012002E50D8B430
:102282000BD02F502E5CD8B00ED02E5000082F2429
:102292002A6E180E2A6407D024C024F025C025F027
:1022A20026C026F01200060E2D6E26BE2D8E29BEE9
:1022B2002D8C258EFF0E2416FF0E2516000E2616D7
:1022C200288EFF0E2716FF0E2816000E29162E50F6
:1022D2002F5CD8B01BD0D8902736283629362E0648
:1022E2002F502E18D8B40DD02D062DC02AF0070E6F
:1022F2002A16D8B406D0EFD7D89026322532243207
:102302002F2A2E502F18D8B41FD0F6D72F502E5C5C
:10231200D8B01AD0D8902436253626362F062F501C
:102322002E18D8B40DD02D062DC02AF0070E2A166D
:10233200D8B406D0EFD7D8902932283227322E2AA5
:102342002E502F18D8A4F7D72DAE0CD0FF0E241A7A
:10235200FF0E251AFF0E261A010E2426000E252234
:10236200000E26222DAC0CD0FF0E271AFF0E281AC3
:10237200FF0E291A010E2726000E2822000E2922FE
:10238200000E2D6E24502726255028222650292261
:1023920029AE0ED0FF0E271AFF0E281AFF0E291A99
:1023A200010E2726000E2822000E2922010E2D6E74
:1023B20027C013F028C014F029C015F02FC016F062
:1023C2002DC017F024EC15F013C024F014C025F032
:1023D20015C026F01200000E336E000E346E000E91
:1023E200356E3CC036F03DC037F03EC038F01EECD2
:1023F20016F0D8A00DD03EAE04D0000E4B6E210ECA
:102402004A6E000E3C6E000E3D6E000E3E6E1200D5
:102412003CC063F03DC064F03EC065F03CC03FF09C
:102422003DC040F03EC041F03F1E401E411E3F2ACB
:10243200000E40224122C80E3F2400016A6F6E0E38
:10244200402000016B6FBE0E412000016C6F000145
:10245200D8906C336B336A33000E0001635F800ED9
:102462000001645B000E0001655B040E0001666FF3
:102472006AC060F06BC061F06CC062F06AC024F0A8
:102482006BC025F06CC026F063C027F064C028F052
:1024920065C029F0D4EC13F024C067F025C068F0C1
:1024A20026C069F067C024F068C025F069C026F034
:1024B2006AC027F06BC028F06CC029F0D4EC13F08E
:1024C20024C067F025C068F026C069F067C024F018
:1024D20068C025F069C026F06AC027F06BC028F0FA
:1024E2006CC029F0D4EC13F024C067F025C068F06A
:1024F20026C069F06AC024F06BC025F06CC026F0DB
:10250200000E276EC00E286E3F0E296ED4EC13F01B
:1025120024C06AF025C06BF026C06CF06AC030F0AF
:102522006BC031F06CC032F067C033F068C034F079
:1025320069C035F02FEC18F030C06AF031C06BF092
:1025420032C06CF00001662F93D76AC024F06BC0D2
:1025520025F06CC026F03CC027F03DC028F03EC0FC
:1025620029F0D4EC13F024C03CF025C03DF026C085
:102572003EF0120044C06DF000016E6B6F6B43348D
:1025820000016D3701E36E8100016D510001776F2B
:1025920000017751D8A409D0000E426E000E436E9E
:1025A200000E446E000E456E1200170E00016D6F94
:1025B20042C06EF043C06FF044C070F000016D295C
:1025C2000001716F05D00001D89070336F336E3304
:1025D2000001712FF8D700016E510001726F438E16
:1025E200FF0E4216FF0E4316000E44164250000123
:1025F200736F43500001746F44500001756F000106
:10260200766B8E0E0001775F000177AF19D0000163
:102612007751800A8F0FD8B009D0000E426E000E9B
:10262200436E000E446E000E456E12000001D890FB
:1026320076337533743373330001773FF7D71AD08B
:10264200170E0001776511D0000E426E000E436E28
:10265200000E446E000E456E12000001D8907337D2
:10266200743775377637000177070001775100011B
:10267200D8A4F3D7000172510001D8B409D00001E7
:10268200761F751F741F736D000E742375237623D6
:1026920073C042F074C043F075C044F076C045F098
:1026A200120013C0D9FF14C0DAFF010EDBBE0FD037
:1026B200010EDB5004E13C0EDE5CD8A008D013C052
:1026C200D9FF14C0DAFF3C0EDE6E000EDD6E13C0C1
:1026D200D9FF14C0DAFF010EDBAE0ED0C50EDE5CF0
:1026E200FF0EDE58D8B008D013C0D9FF14C0DAFFED
:1026F200C40EDE6EFF0EDD6E15C0D9FF16C0DAFF06
:10270200010EDBBE0FD0010EDB5004E13C0EDE5C9D
:10271200D8A008D015C0D9FF16C0DAFF3C0EDE6E75
:10272200000EDD6E15C0D9FF16C0DAFF010EDBAE5A
:102732000ED0C50EDE5CFF0EDE58D8B008D015C034
:10274200D9FF16C0DAFFC40EDE6EFF0EDD6E17C0B3
:10275200D9FF18C0DAFF010EDBBE0FD0010EDB502D
:1027620004E11F0EDE5CD8A008D017C0D9FF18C044
:10277200DAFF1E0EDE6E000EDD6E17C0D9FF18C026
:10278200DAFF010EDBAE1200E20EDE5CFF0EDE5857
:10279200D8B0120017C0D9FF18C0DAFFE20EDE6E01
:1027A200FF0EDD6E120026C02AF02B6A2C6A253439
:1027B2002A3601E32B802A502D6E2D50D8A407D043
:1027C200000E246E000E256E000E266E120029C029
:1027D2002AF02B6A2C6A28342A3601E32B802A50ED
:1027E200326E3250D8A407D0000E246E000E256E31
:1027F200000E266E120032507B0F2D2626C032F0BC
:102802002950321A800E3216258E288EFF0E271678
:10281200FF0E2816000E2916000E2E6E000E2F6EC9
:10282200000E306E070E316E24A006D027502E26E1
:1028320028502F2229503022D89026322532243295
:10284200D890273628362936312EEED7090E316E2A
:1028520024A006D027502E2628502F22295030227D
:10286200D890263225322432D89030322F322E326E
:10287200312EEED72EC013F02FC014F030C015F059
:102882002DC016F032C017F024EC15F013C024F05E
:1028920014C025F015C026F0120035C039F03A6A8E
:1028A2003B6A3434393601E33A803950406E405045
:1028B200D8A407D0000E336E000E346E000E356EB3
:1028C200120038C039F03A6A3B6A3734393601E3CC
:1028D2003A803950416E4150D8A407D0000E336E71
:1028E200000E346E000E356E1200000E3D6E000EAC
:1028F2003E6E000E3F6E4150890F405E35C041F082
:102902003850411A800E4116348EFF0E3316FF0ED8
:102912003416000E3516378EFF0E3616FF0E37169A
:10292200000E3816180E3C6ED8903D363E363F36B5
:102932003650335C3750345838503558D8A007D009
:102942003650335E3750345A3850355A3D80D8901D
:102952003336343635363C2EE7D73DC013F03EC011
:1029620014F03FC015F040C016F041C017F024EC3F
:1029720015F013C033F014C034F015C035F0120056
:10298200000E926E9690969296948D908D928D8472
:10299200210E146E760EE82EFED7142EFCD700D030
:1029A200300EC8EC18F0270E146EF50EE82EFED786
:1029B200142EFCD700F0300EC8EC18F0270E146E5F
:1029C200F50EE82EFED7142EFCD700F0300EC8EC20
:1029D20018F0270E146EF50EE82EFED7142EFCD733
:1029E20000F0380EC8EC18F0270E146EF50EE82E23
:1029F200FED7142EFCD700F0080EC8EC18F0270EF4
:102A0200146EF50EE82EFED7142EFCD700F0010E40
:102A1200C8EC18F0270E146EF50EE82EFED7142E11
:102A2200FCD700F0060EC8EC18F0270E146EF50E57
:102A3200E82EFED7142EFCD700F00F0EC8EC18F0CB
:102A4200A5EC18F012001650D8B405D0135014108B
:102A52001510D8A40CD0000E136E000E146E000ECA
:102A6200156E1200162AD890153214321332000E47
:102A72001314186E000E1414196EFE0E15141A6E2D
:102A8200185019101A10D8B40CD0ECD7162A010E0F
:102A92001326000E1422000E1522D890153214327D
:102AA2001332000E1314186E000E1414196EFF0E5A
:102AB20015141A6E185019101A10D8B406D0E6D789
:102AC2001606D89013361436153614BE03D0020EED
:102AD2001660F6D716A0149ED8901632165015120C
:102AE2001750D8A4158E13C013F014C014F015C0DB
:102AF20015F01200F29E000ECD6E3F0ECD16CD5097
:102B0200CF0B2009CD6E000E0F014E6F3F0E0F014D
:102B12004E170F014E51CF0B20094E6F000E0F01C1
:102B22005D6F000E666E0F015D51F00B0A095D6F5D
:102B32006650F00B0A09666E3F0E0F0149170F012E
:102B42004951E70B1009496F020E0F015F6FA30E87
:102B52005E6F020E686EA30E676E7A80A0809D8201
:102B6200000EBA6EBA50FC0B0209BA6EBA847D0E20
:102B7200BB6EF28EF28C000ECF6E000ECE6E000E89
:102B82000F01506F000E4F6FCD800F014E81F28EFC
:102B920095909592000E0F013B6F1200000E0001FE
:102BA200816F8E0E0001806F00017BAF15D0000196
:102BB2007B1F7A1F791F786D000E79237A237B237E
:102BC200010E0001816F08D00001D8907B337A3367
:102BD200793378330001802B000E00017815000153
:102BE2007C6F000E0001791500017D6F000E00015F
:102BF2007A1500017E6FFF0E00017B1500017F6FC9
:102C020000017C5100017D1100017E1100017F1144
:102C1200D8A4DAD778C013F079C014F07AC015F0CE
:102C220080C016F081C017F024EC15F013C078F0C4
:102C320014C079F015C07AF0120035AE16D033C048
:102C420039F034C03AF035C03BF0391E3A1E3B1E13
:102C5200392A000E3A223B22000E3924336E000E2E
:102C62003A20346E800E3B20356E38AE16D036C018
:102C720039F037C03AF038C03BF0391E3A1E3B1EDD
:102C8200392A000E3A223B22000E3924366E000EFB
:102C92003A20376E800E3B20386E000E331A000E3B
:102CA200341A800E351A000E361A000E371A800EAC
:102CB200381A3650335C3750345838503558D8B0FB
:102CC20002D0D8901200D88012008DC082F08EC03F
:102CD20083F08FC084F0ADEC16F082C08AF083C01E
:102CE2008BF084C08CF06BEC18F08AC024F08BC09F
:102CF20025F08CC026F08DC027F08EC028F08FC042
:102D020029F016EC11F024C090F025C091F026C0F5
:102D120092F08DC024F08EC025F08FC026F090C0B6
:102D220027F091C028F092C029F016EC11F024C0CF
:102D32008DF025C08EF026C08FF08DC082F08EC03F
:102D420083F08FC084F0ADEC16F082C08DF083C0AA
:102D52008EF084C08FF0120082C013F083C014F092
:102D620084C015F0880E166E000E176EF4EC16F085
:102D7200000189AF0AD0000E0001826F000E00012F
:102D8200836F000E0001846F12000001895105E17A
:102D9200150E0001885DD8A007D082C082F083C0E2
:102DA20083F084C084F0120082C042F083C043F0FA
:102DB20084C044F0BBEC12F042C078F043C079F01A
:102DC20044C07AF045C07BF0CFEC15F078C085F0B6
:102DD20079C086F07AC087F085C082F086C083F021
:102DE20087C084F01200135014101510D8A409D013
:102DF20016C0D9FF17C0DAFF000EDE6E000EDD6EC0
:102E0200120015507F0B186E196AD89018361936B1
:102E120016C0D9FF17C0DAFF18C0DEFF19C0DDFFE8
:102E220014AE03D0186A182A01D0186A185016C0B6
:102E3200D9FF17C0DAFFDE12000EDD1216C0D9FF6D
:102E420017C0DAFF820EDE26FF0EDD221580158204
:102E5200158415861588158A159C149E120000EE9D
:102E6200BCF0130EEE6AE806FDE14B6A4A6AAA0E4E
:102E7200F66E310EF76E000EF86E00EECFF010EE29
:102E820004F00900F5CFEEFFE550E150FAE1A60E9D
:102E9200F66E310EF76E000EF86E00EE46F010EE92
:102EA20004F00900F5CFEEFFE550E150FAE14C9055
:102EB2004C92000EF86E000128EF0EF08E0E236E7B
:102EC20006D0D8901E321D321C321B32232A000E2D
:102ED2001B141F6E000E1C14206E000E1D14216E9A
:102EE200FF0E1E14226E1F50201021102210D8A493
:102EF200E8D71BC013F01CC014F01DC015F023C08E
:102F020016F0000E176E24EC15F013C01BF014C05F
:102F12001CF015C01DF01200196E720E1918D8A4FB
:102F22000DD013C017F014C018F0D8901736183609
:102F3200D50E1724486E020E1820496E6C0E191811
:102F4200D8A4120013C017F014C018F0D890173686
:102F520018361550172616501822171E181E174A13
:102F6200182AE90E1724466E020E1820476E120028
:102F72000F01428F0F01429D0F014251CF0B1009E9
:102F8200426F93820F013983788E789C789A788881
:102F920078867884030E7812778877947790938670
:102FA2000F013987798E799C799A79887986798423
:102FB2007950FC0B0209796E778A77967792A19CF9
:102FC200A19AA08AA08C1200000E186E000E176E35
:102FD20015501610D8B41CD0010E196E04D0D8901A
:102FE20015361636192A16AEFAD7D890173618366D
:102FF2001550135C16501458D8A005D01550135E06
:103002001650145A1780D89016321532192EEDD751
:1030120017C013F018C014F012001C501D10D8B4C1
:1030220018D0010E1E6E04D0D8901C361D361E2AF2
:103032001DAEFAD71C501A5C1D501B58D8A004D0E4
:103042001C501A5E1D501B5AD8901D321C321E2E67
:10305200F1D71AC01AF01BC01BF012003350341003
:103062003510D8B406D0000E331A000E341A800E72
:10307200351A30C024F031C025F032C026F033C0FA
:1030820027F034C028F035C029F016EC11F024C026
:1030920030F025C031F026C032F01200000E1E6E54
:1030A2001CAE06D01B6C1C1ED8B01C2A010E1E6E54
:1030B2001BC013F01CC014F0156A8E0E166E1EC0D3
:1030C20017F024EC15F013C01BF014C01CF015C04F
:1030D2001DF0120000018A5100018B1100018C11B8
:1030E200D8B409D0000E00018A1B000E00018B1B10
:1030F200800E00018C1B8AC08AF08BC08BF08CC0C2
:103102008CF0120013501502F3CF17F0F4CF18F021
:1031120013501602F350182614501502F3501826B5
:1031220017C013F018C014F01200156E000E146EC2
:103132003A0E156005D02F0E156402D0010E146EE2
:1031420014C013F013301200928E8D908D828D94E4
:103152008D8480BEFCD78D84929E1200146E8D8069
:103162008D921450C8EC18F0A5EC18F012008D9056
:103172008D92C00EC8EC18F0A5EC18F012008D90DC
:103182008D92010EC8EC18F0A5EC18F01200136E27
:1031920013C089FF8D948D841200156E1550AFEC0B
:0C31A20018F01200E902D5022300190009
:020000040020DA
:08000000FFFFFFFFFFFFFFFF00
:020000040030CA
:0E000000FF281E3CFFAC85FF0FC00FE00F4035
:00000001FF
