:0400000095EF00F088
:100008004E82FACF03F0FBCF04F0E9CF05F0EACF38
:1000180006F0E1CF07F0E2CF08F0D9CF09F0DACF48
:100028000AF0F3CF0BF0F4CF0CF0F6CF0DF0F7CFCA
:100038000EF0F8CF0FF0F5CF10F0A0B0A1A021D0AE
:10004800D00E675C070E6858D8B010D08B9267CF77
:1000580001F068CF02F0011E021E014A022A400E7A
:100068000124676E1F0E0220686E05D08B8288C03F
:1000780067FF89C068FF000E0F01506F000E4F6FB9
:10008800A1907AB07BA024D0D00E0F015E5D070E40
:100098000F015F59D8B012D08B905ECF01F05FCFBF
:1000A80002F0011E021E014A022A400E01240F011D
:1000B8005E6F1F0E02200F015F6F05D08B808AC014
:1000C8005EFF8BC05FFF000ECF6E000ECE6E7B9082
:1000D8009DB29EA208D0010E00017C27000E7D2350
:1000E8007E237F239E9210C0F5FF0FC0F8FF0EC03D
:1000F800F7FF0DC0F6FF0CC0F4FF0BC0F3FF0AC0FA
:10010800DAFF09C0D9FF08C0E2FF07C0E1FF06C057
:10011800EAFF05C0E9FF04C0FBFF03C0FAFF4E92E7
:060128001100ECEF10F0E5
:101000000001000A006400E80310274576656E744D
:101010003A202533640025640000D3508F0B40092B
:10102000D36EF29E000ECD6E3F0ECD16000E0F0158
:101030004E6F3F0E0F014E17CD82000E0F015D6FF8
:10104000000E666E0F015D51F00B0A095D6F665070
:10105000F00B0A09666E7A80A0803F0E0F014917D7
:101060000F014951E70B1009496F010E0F015F6F26
:10107000450E5E6F010E686E450E676E9D82000E16
:10108000BA6E030EBA12BA84F28EF28CCD800F01C2
:101090004E81F28E9490949293880F013999000EAC
:1010A00000016D6F000E6E6F000E6F6F000E706F9F
:1010B000000E0001716F000E726F000E736F000E54
:1010C000746F000E0001756F000E00017B6F000E43
:1010D0007A6F000E0001776F000E766F000E000130
:1010E000796F000E786F1BEC0FF00B0E1D6E100E5B
:1010F0001E6E75C01FF0206AD3EC0BF05CEC11F093
:10110000160E1D6E100E1E6EB2CF1FF0B3CF20F064
:10111000D3EC0BF0320E000171250001696F000E57
:101120000001722100016A6F000E000173210001AD
:101130006B6F000E0001742100016C6F00017C5187
:101140000001695D00017D5100016A5900017E5175
:1011500000016B5900017F5100016C59D8B00FD0CC
:1011600000018807D8A0890700018A4B8B2B7CC01F
:1011700071F07DC072F07EC073F07FC074F000012A
:101180007505D8A4C7D7000E00016D6F000E6E6FF5
:10119000000E6F6F000E706FFAD2000177BF08D09B
:1011A0000001775121E10A0E0001765DD8B01CD014
:1011B0000001764B772B76C060F077C061F07AC083
:1011C00062F07BC063F0720EA9EC0DF00001784B69
:1011D000792B78C060F079C061F07AC062F07BC092
:1011E00063F06C0EA9EC0DF0000177BF26D0000172
:1011F000775105E1380E0001765DD8A01ED00001C0
:101200007607D8A0770776C060F077C061F07AC023
:1012100062F07BC063F0720EA9EC0DF0000178075C
:10122000D8A0790778C060F079C061F07AC062F028
:101230007BC063F06C0EA9EC0DF0020E000184255A
:101240000001696F000E0001852100016A6F000E28
:101250000001862100016B6F000E00018721000153
:101260006C6F000180510001695D00018151000136
:101270006A590001825100016B590001835100013C
:101280006C59D8B00FD000017A07D8A07B0778C07E
:1012900060F079C061F07AC062F07BC063F06C0EE0
:1012A000A9EC0DF0020E000180250001696F000E0F
:1012B0000001812100016A6F000E000182210001FE
:1012C0006B6F000E0001832100016C6F00018451DF
:1012D0000001695D0001855100016A5900018651D4
:1012E00000016B590001875100016C59D8B00ED034
:1012F00000017A4B7B2B78C060F079C061F07AC036
:1013000062F07BC063F06C0EA9EC0DF00001875118
:10131000000186110001851105E1710E0001845D57
:10132000D8A02ED0000E0001846F000E856F000E35
:10133000866F000E876F000E0001806F000E816FB8
:10134000000E826F000E836F000E0001616F000EB1
:10135000606F7AC062F07BC063F0720EA9EC0DF092
:10136000000E0001616F000E606F7AC062F07BC0FA
:1013700063F06C0EA9EC0DF081B0FED70001752B67
:10138000780E116E000E126E760E136E000E146E35
:101390007EEC0FF0BFD6000177BF08D00001775177
:1013A00022E10A0E0001765DD8B01DD00001764B17
:1013B000772B76C060F077C061F07AC062F07BC0B6
:1013C00063F0720EA9EC0DF000017807D8A0790740
:1013D00078C060F079C061F07AC062F07BC063F0E1
:1013E0006C0EA9EC0DF0000177BF25D000017751FC
:1013F00005E10D0E0001765DD8A01DD00001760735
:10140000D8A0770776C060F077C061F07AC062F04C
:101410007BC063F0720EA9EC0DF00001784B792BC4
:1014200078C060F079C061F07AC062F07BC063F090
:101430006C0EA9EC0DF0020E000184250001696F0D
:10144000000E0001852100016A6F000E0001862157
:1014500000016B6F000E0001872100016C6F00011D
:1014600080510001695D0001815100016A5900014C
:10147000825100016B590001835100016C59D8B0B1
:101480000ED000017A4B7B2B78C060F079C061F000
:101490007AC062F07BC063F06C0EA9EC0DF0020E16
:1014A000000180250001696F000E0001812100010B
:1014B0006A6F000E0001822100016B6F000E0001B7
:1014C000832100016C6F000184510001695D0001FE
:1014D000855100016A590001865100016B590001D4
:1014E000875100016C59D8B00FD000017A07D8A0FD
:1014F0007B0778C060F079C061F07AC062F07BC091
:1015000063F06C0EA9EC0DF000018751000186110B
:101510000001851105E1190E0001845DD8A02ED0CF
:10152000000E0001846F000E856F000E866F000EA6
:10153000876F000E0001806F000E816F000E826FBA
:10154000000E836F000E0001616F000E606F7AC0A5
:1015500062F07BC063F0720EA9EC0DF0000E00018A
:10156000616F000E606F7AC062F07BC063F06C0E3A
:10157000A9EC0DF081B0FED70001752B780E116E2D
:10158000000E126E760E136E000E146E7EEC0FF0CF
:10159000C1D5000177BF08D00001775121E11E0EAF
:1015A0000001765DD8B01CD00001764B772B76C059
:1015B00060F077C061F07AC062F07BC063F0720EB9
:1015C000A9EC0DF00001784B792B78C060F079C060
:1015D00061F07AC062F07BC063F06C0EA9EC0DF094
:1015E000020E00018425196E000E000185211A6E7D
:1015F000000E000186211B6E000E000187211C6E6B
:1016000074EC10F019C031F01AC032F01BC033F086
:10161000000E256EA00E266E3F0E276E80C019F0BC
:1016200081C01AF082C01BF083C01CF074EC10F073
:1016300019C022F01AC023F01BC024F0A1EC0EF058
:1016400022C034F023C035F024C036F02CEC10F06A
:10165000D8B00FD000017A07D8A07B0778C060F01F
:1016600079C061F07AC062F07BC063F06C0EA9ECC7
:101670000DF0000E256EA00E266E3F0E276E020E98
:1016800000018025196E000E000181211A6E000EE6
:10169000000182211B6E000E000183211C6E74EC80
:1016A00010F019C022F01AC023F01BC024F0A1ECE6
:1016B0000EF022C031F023C032F024C033F084C0D9
:1016C00019F085C01AF086C01BF087C01CF074ECBE
:1016D00010F019C034F01AC035F01BC036F02CECF5
:1016E00010F0D8B00ED000017A4B7B2B78C060F0A0
:1016F00079C061F07AC062F07BC063F06C0EA9EC37
:101700000DF0000187510001861108E1F40E00017F
:10171000845D010E00018559D8A02ED0000E000175
:10172000846F000E856F000E866F000E876F000EAF
:101730000001806F000E816F000E826F000E836FBC
:10174000000E0001616F000E606F7AC062F07BC016
:1017500063F0720EA9EC0DF0000E0001616F000E37
:10176000606F7AC062F07BC063F06C0EA9EC0DF084
:1017700081B0FED70001752B780E116E000E126E2F
:10178000760E136E000E146E7EEC0FF0C3D40001C3
:101790007551000AD8B401D5010AD8B4FCD5030AA2
:1017A000D8B4F7D6B7D41F0E256E000E266EEED035
:1017B000250E2D18D8B404D02D506AEC11F0E6D0C7
:1017C000000E2C6E000E2B6E000E286E1DC0F6FF54
:1017D0001EC0F7FF0800F5503AEC11F0D8A032D047
:1017E000000E2C6E000E2B6E2BC011F02CC012F0D0
:1017F000000E146E0A0E136E27EC11F011C02BF0C0
:1018000012C02CF0D00E216EFF0E226E1DC0F6FF0E
:101810001EC0F7FF0800F550236E246A21502326CE
:101820002250242223502B2624502C221D4A1E2ACB
:101830001DC0F6FF1EC0F7FF0800F5503AEC11F08E
:10184000D8B0D2D71DC0F6FF1EC0F7FF1D4A1E2A12
:101850000800F5CF2DF02D50000AD8B41200640A0C
:10186000D8B403D00D0AD8A491D025C0D9FF26C082
:10187000DAFFDECF29F0DDCF2AF0020E2526000E9A
:1018800026222AAE06D0030E2812296C2A1ED8B0B2
:101890002A2A010E2D6E050E2D18D8B412D02D5007
:1018A000020D010EF324F66E100EF420F76E0900FF
:1018B000F550295C0900F5502A58D8A002D02D2AED
:1018C000EAD72B502C10D8B409D028C021F0030E31
:1018D0002116D8B403D02B06D8A02C06800E2DBE1E
:1018E0007F0E216E2B502D5C2C50800A2158D8B0D1
:1018F00007D02D502B5E000E2DBEFF0E2C5A04D0AB
:10190000000E2C6E000E2B6E2B502C10D8B40AD06B
:10191000200E6AEC11F02B06D8A02C062B502C10B0
:10192000D8A4F6D728C021F0030E2116D8B403D0CE
:101930002D0E6AEC11F02DC027F024D02750020D97
:10194000010EF324F66E100EF420F76E0900F5CFA9
:1019500013F00A00F5CF14F029C011F02AC012F0DC
:10196000A2EC10F011C018F012C019F0000E1B6E9E
:101970000A0E1A6ECBEC10F01850300F2D6E2D5051
:101980006AEC11F027062728D8A4D8D71DC0F6FF87
:101990001EC0F7FF1D4A1E2A0800F5CF2DF02D505E
:1019A000D8B4120005D733C037F0386A396A3234F8
:1019B000373601E3388037503C6E36C037F0386A2E
:1019C000396A3534373601E3388037503B6E3C5046
:1019D000D8B40BD03B503C5CD8B00ED03C50000883
:1019E0003B24376E180E376407D034C031F035C051
:1019F00032F036C033F012003B50D8B40BD03C501C
:101A00003B5CD8B00ED03B5000083C24376E180E1B
:101A1000376407D031C031F032C032F033C033F018
:101A20001200060E3A6E33BE3A8E36BE3A8C328EB5
:101A3000FF0E3116FF0E3216000E3316358EFF0ED6
:101A40003416FF0E3516000E36163B503C5CD8B0EF
:101A50001BD0D8903436353636363B063C503B18D2
:101A6000D8B40DD03A063AC037F0070E3716D8B4BE
:101A700006D0EFD7D8903332323231323C2A3B5045
:101A80003C18D8B41FD0F6D73C503B5CD8B01AD025
:101A9000D8903136323633363C063C503B18D8B4F9
:101AA0000DD03A063AC037F0070E3716D8B406D034
:101AB000EFD7D8903632353234323B2A3B503C187F
:101AC000D8A4F7D73AAE0CD0FF0E311AFF0E321A57
:101AD000FF0E331A010E3126000E3222000E332281
:101AE0003AAC0CD0FF0E341AFF0E351AFF0E361A20
:101AF000010E3426000E3522000E3622000E3A6EFC
:101B000031503426325035223350362236AE0ED084
:101B1000FF0E341AFF0E351AFF0E361A010E342648
:101B2000000E3522000E3622010E3A6E34C011F03E
:101B300035C012F036C013F03CC014F03AC015F0B6
:101B4000D5EC0FF011C031F012C032F013C033F0F9
:101B500012000001686F720E00016819D8A433D01A
:101B6000800E346E3B0E356E440E366E000E256EC2
:101B7000A00E266E3F0E276E60C019F061C01AF0ED
:101B80000BEC11F019C022F01AC023F01BC024F096
:101B9000A1EC0EF022C031F023C032F024C033F0AB
:101BA000D3EC0CF031C03DF032C03EF033C03FF01A
:101BB00027EC0EF03DC064F03EC065F000016551B9
:101BC000BF6E64C0BEFF6C0E00016819D8A412007D
:101BD000000E256EA00E266E3F0E276E60C019F017
:101BE00061C01AF00BEC11F019C022F01AC023F0FA
:101BF0001BC024F0A1EC0EF022C034F023C035F05D
:101C000024C036F0EE0E00016225196E020E0001AE
:101C100063211A6E0BEC11F019C031F01AC032F0CA
:101C20001BC033F0D3EC0CF031C03DF032C03EF0BD
:101C300033C03FF027EC0EF03DC066F03EC067F0C9
:101C4000000167510F015F6F66C05EFF12003FC069
:101C500041F0426A436A3E34413601E342804150DA
:101C60004B6E4B50D8A409D0000E3D6E000E3E6E58
:101C7000000E3F6E000E406E1200170E416E3DC00A
:101C800042F03EC043F03FC044F04128456E04D0CE
:101C9000D890443243324232452EFAD74250466EF3
:101CA0003E8EFF0E3D16FF0E3E16000E3F163D50B7
:101CB000476E3E50486E3F50496E4A6A8E0E4B5EEC
:101CC0004BAE16D04B50800A8F0FD8B009D0000E03
:101CD0003D6E000E3E6E000E3F6E000E406E120016
:101CE000D8904A324932483247324B3EF9D715D064
:101CF000170E4B640FD0000E3D6E000E3E6E000EB0
:101D00003F6E000E406E1200D89047364836493676
:101D10004A364B064B50D8A4F7D74650D8B408D013
:101D20004A1E491E481E476C000E482249224A227C
:101D300047C03DF048C03EF049C03FF04AC040F0C7
:101D4000120024C028F0296A2A6A2334283601E3C5
:101D5000298028502B6E2B50D8A407D0000E226E5D
:101D6000000E236E000E246E120027C028F0296A90
:101D70002A6A2634283601E329802850306E3050F4
:101D8000D8A407D0000E226E000E236E000E246E23
:101D9000120030507B0F2B2624C030F02750301A11
:101DA000800E3016238E268EFF0E2516FF0E261669
:101DB000000E2716000E2C6E000E2D6E000E2E6EDD
:101DC000070E2F6E22A006D025502C2626502D223D
:101DD00027502E22D890243223322232D890253612
:101DE000263627362F2EEED7090E2F6E22A006D0CC
:101DF00025502C2626502D2227502E22D8902432D2
:101E000023322232D8902E322D322C322F2EEED782
:101E10002CC011F02DC012F02EC013F02BC014F006
:101E200030C015F0D5EC0FF011C022F012C023F035
:101E300013C024F01200000E926E96909692969423
:101E40008D908D928D84210E126E760EE82EFED727
:101E5000122EFCD700D0300E64EC11F0270E126E5B
:101E6000F50EE82EFED7122EFCD700F0300E64ECF3
:101E700011F0270E126EF50EE82EFED7122EFCD7AB
:101E800000F0300E64EC11F0270E126EF50EE82E05
:101E9000FED7122EFCD700F0380E64EC11F0270E9E
:101EA000126EF50EE82EFED7122EFCD700F0080EAB
:101EB00064EC11F0270E126EF50EE82EFED7122EEE
:101EC000FCD700F0010E64EC11F0270E126EF50E37
:101ED000E82EFED7122EFCD700F0060E64EC11F0AF
:101EE000270E126EF50EE82EFED7122EFCD700F04C
:101EF0000F0E64EC11F049EC11F0120011C0D9FF83
:101F000012C0DAFF010EDBBE0FD0010EDB5004E180
:101F1000640EDE5CD8A008D011C0D9FF12C0DAFF71
:101F2000640EDE6E000EDD6E11C0D9FF12C0DAFF46
:101F3000010EDBAE0ED09D0EDE5CFF0EDE58D8B07B
:101F400008D011C0D9FF12C0DAFF9C0EDE6EFF0E62
:101F5000DD6E13C0D9FF14C0DAFF010EDBBE0FD057
:101F6000010EDB5004E1500EDE5CD8A008D013C097
:101F7000D9FF14C0DAFF500EDE6E000EDD6E13C006
:101F8000D9FF14C0DAFF010EDBAE1200B10EDE5C29
:101F9000FF0EDE58D8B0120013C0D9FF14C0DAFF0C
:101FA000B00EDE6EFF0EDD6E12001450D8B405D0F8
:101FB000115012101310D8A40CD0000E116E000E88
:101FC000126E000E136E1200142AD89013321232C1
:101FD0001132000E1114166E000E1214176EFE0E42
:101FE0001314186E165017101810D8B40CD0ECD764
:101FF000142A010E1126000E1222000E1322D89070
:10200000133212321132000E1114166E000E121419
:10201000176EFF0E1314186E165017101810D8B440
:1020200006D0E6D71406D89011361236133612BEF3
:1020300003D0020E1460F6D714A0129ED89014326A
:10204000145013121550D8A4138E11C011F012C0E1
:1020500012F013C013F0120033AE16D031C037F0B7
:1020600032C038F033C039F0371E381E391E372AD7
:10207000000E38223922000E3724316E000E38202F
:10208000326E800E3920336E36AE16D034C037F043
:1020900035C038F036C039F0371E381E391E372AA1
:1020A000000E38223922000E3724346E000E3820FC
:1020B000356E800E3920366E000E311A000E321A3F
:1020C000800E331A000E341A000E351A800E361A9E
:1020D0003450315C3550325836503358D8B002D075
:1020E000D8901200D88012008E0E216E06D0D890A3
:1020F0001C321B321A321932212A000E19141D6E9D
:10210000000E1A141E6E000E1B141F6EFF0E1C1400
:10211000206E1D501E101F102010D8A4E8D719C023
:1021200011F01AC012F01BC013F021C014F0000E01
:10213000156ED5EC0FF011C019F012C01AF013C0D3
:102140001BF01200000E166E000E156E13501410C8
:10215000D8B41CD0010E176E04D0D89013361436A4
:10216000172A14AEFAD7D890153616361350115CCC
:1021700014501258D8A005D01350115E1450125AA2
:102180001580D89014321332172EEDD715C011F0E8
:1021900016C012F012001A501B10D8B418D0010E3D
:1021A0001C6E04D0D8901A361B361C2A1BAEFAD7E8
:1021B0001A50185C1B501958D8A004D01A50185E39
:1021C0001B50195AD8901B321A321C2EF1D718C046
:1021D00018F019C019F0120000EE7CF00C0EEE6A37
:1021E000E806FDE14D6A4C6ADE0EF66E220EF76ED1
:1021F000000EF86E00EE88F010EE04F00900F5CF46
:10220000EEFFE550E150FAE14E904E92000EF86E6E
:1022100000010DEF08F0000E1C6E1AAE06D0196C0E
:102220001A1ED8B01A2A010E1C6E19C011F01AC05D
:1022300012F0136A8E0E146E1CC015F0D5EC0FF060
:1022400011C019F012C01AF013C01BF01200115087
:102250001302F3CF15F0F4CF16F011501402F3501F
:10226000162612501302F350162615C011F016C090
:1022700012F01200136E000E126E3A0E136005D0AB
:102280002F0E136402D0010E126E12C011F0113025
:102290001200928E8D908D828D948D8480BEFCD79D
:1022A0008D84929E1200126E8D808D92125064EC7D
:1022B00011F049EC11F012008D908D92C00E64EC7B
:1022C00011F049EC11F01200116E11C089FF8D94CC
:1022D0008D841200136E135053EC11F01200A30200
:0222E000B70243
:020000040020DA
:08000000FFFFFFFFFFFFFFFF00
:020000040030CA
:0E000000FF281E3CFFAC85FF0FC00FE00F4035
:00000001FF
