:04000000A7EF00F076
:100008004C82FACF03F0FBCF04F0E9CF05F0EACF3A
:1000180006F0E1CF07F0E2CF08F0D9CF09F0DACF48
:100028000AF0F3CF0BF0F4CF0CF0F6CF0DF0F7CFCA
:100038000EF0F8CF0FF0F5CF10F0A0B0A1A01ED0B1
:100048008CA210D08C9267CF01F068CF02F0011E0D
:10005800021E014A022A400E0124676E1F0E02206A
:10006800686E05D08C8246C067FF47C068FF000EE7
:100078000F01506F000E4F6FA19047D07AB07BA050
:100088001FD08CA012D08C905ECF01F05FCF02F011
:10009800011E021E014A022A400E01240F015E6F52
:1000A8001F0E02200F015F6F05D08C8048C05EFFD5
:1000B80049C05FFF7B90000ECF6E000ECE6E25D03C
:1000C800A1BCA0AC0AD0010E0001A527000EA623F2
:1000D800A723A82379CF11F0A19CA1BAA0AA0AD07E
:1000E800010E0001A927000EAA23AB23AC2378CF69
:1000F80012F0A19A9DB29EA208D0010E0001A1277C
:10010800000EA223A323A4239E9210C0F5FF0FC0C4
:10011800F8FF0EC0F7FF0DC0F6FF0CC0F4FF0BC0D0
:10012800F3FF0AC0DAFF09C0D9FF08C0E2FF07C021
:10013800E1FF06C0EAFF05C0E9FF04C0FBFF03C0FA
:0A014800FAFF4C92110031EF16F09F
:101000000001000A006400E80310274576656E744D
:101010003A202533640053706565643A20256400E6
:101020004C573A20256420002052573A202564006E
:0110300000BF
:1010320002EF0EF00001B0BF08D00001B05121E173
:10104200140E0001AF5DD8B01CD00001B64BB72B17
:101052000001B44BB52BB6C013F0B7C014F0B2C048
:1010620015F0B3C016F0720E8EEC16F0B4C013F089
:10107200B5C014F0B2C015F0B3C016F06C0E8EEC11
:1010820016F00001B0BF2ED00001B05105E1470EAD
:101092000001AF5DD8A026D00001B607D8A0B707DF
:1010A2000001B407D8A0B5070001B607D8A0B7075A
:1010B200B6C013F0B7C014F0B2C015F0B3C016F04A
:1010C200720E8EEC16F00001B407D8A0B507B4C0BA
:1010D20013F0B5C014F0B2C015F0B3C016F06C0E28
:1010E2008EEC16F0010E0001A9250001786F000EAA
:1010F2000001AA210001796F000E0001AB2100015D
:101102007A6F000E0001AC2100017B6F0001A55136
:101112000001785D0001A651000179590001A75133
:1011220000017A590001A85100017B59D8B061D061
:10113200A9C078F0AAC079F0ABC07AF0ACC07BF05D
:101142000001781F791F7A1F7B1F782B000E7923ED
:101152007A237B230001A551000178251B6E000133
:10116200A651000179211C6E0001A75100017A21CC
:101172001D6E0001A85100017B211E6E60EC16F06D
:101182001BC036F01CC037F01DC038F0D3EC11F094
:1011920036C083F037C084F038C085F083C033F0A6
:1011A20084C034F085C035F0B2C01BF0B3C01CF06F
:1011B20050EC17F01BC030F01CC031F01DC032F0F3
:1011C20030EC17F030C042F031C043F032C044F08E
:1011D200A2EC12F042C0B2F043C0B3F0B4C013F0BC
:1011E200B5C014F0B2C015F0B3C016F06C0E8EECA0
:1011F20016F0010E0001A5250001786F000E000116
:10120200A6210001796F000E0001A72100017A6F6B
:10121200000E0001A82100017B6F0001A95100010D
:10122200785D0001AA51000179590001AB5100011A
:101232007A590001AC5100017B59D8B075D0A5C0D4
:1012420078F0A6C079F0A7C07AF0A8C07BF00001C0
:10125200781F791F7A1F7B1F782B000E79237A2340
:101262007B230001A951000178251B6E0001AA51C0
:10127200000179211C6E0001AB5100017A211D6E23
:101282000001AC5100017B211E6E60EC16F01BC008
:1012920036F01CC037F01DC038F0D3EC11F036C068
:1012A20086F037C087F038C088F0000E276EA00E97
:1012B200286E400E296E86C024F087C025F088C0B3
:1012C20026F0FDEC10F024C07CF025C07DF026C095
:1012D2007EF07CC027F07DC028F07EC029F0B2C02D
:1012E2001BF0B3C01CF050EC17F01BC024F01CC064
:1012F20025F01DC026F0FDEC10F024C042F025C000
:1013020043F026C044F0A2EC12F042C0B2F043C057
:10131200B3F0B4C013F0B5C014F0B2C015F0B3C04E
:1013220016F06C0E8EEC16F00001AC510001AB1100
:101332000001AA1105E1730E0001A95DD8A091D0A8
:101342000001A8510001A7110001A61105E1730EC9
:101352000001A55DD8A060D0000E0001A96F000EAB
:10136200AA6F000EAB6F000EAC6F000E0001A56FEE
:10137200000EA66F000EA76F000EA86F000E0001F0
:10138200B56F000EB46F000E0001B76F000EB66F9E
:101392000001B12B000E0001B36F000EB26FB6C098
:1013A20013F0B7C014F0B2C015F0B3C016F0720E4D
:1013B2008EEC16F0B4C013F0B5C014F0B2C015F044
:1013C200B3C016F06C0E8EEC16F0000E0001806FAA
:1013D200000E7F6F000180BF08D00001805111E133
:1013E200140E00017F5DD8B00CD0820E0001786F20
:1013F200DE0EE82EFED7782FFCD700017F4B802B24
:10140200E9D7000E0001B76F190EB66FFF0E00018B
:10141200B56FE20EB46F25D0000E0001B76F000E5B
:10142200B66F000E0001B56F1E0EB46F000E000104
:10143200B36F000EB26FB6C013F0B7C014F0B2C0F3
:1014420015F0B3C016F0720E8EEC16F0B6C013F0A3
:10145200B7C014F0B2C015F0B3C016F0720E8EEC25
:1014620016F0B40E136E000E146EB60E156E000E4C
:10147200166EB20E176E000E186E39EC13F01200D3
:101482000001B0BF08D00001B05122E10F0E0001EF
:10149200AF5DD8B01DD00001B64BB72BB6C013F06C
:1014A200B7C014F0B2C015F0B3C016F0720E8EECD5
:1014B20016F00001B407D8A0B507B4C013F0B5C048
:1014C20014F0B2C015F0B3C016F06C0E8EEC16F02C
:1014D2000001B0BF25D00001B05105E11F0E00018F
:1014E200AF5DD8A01DD00001B607D8A0B707B6C01F
:1014F20013F0B7C014F0B2C015F0B3C016F0720EFC
:101502008EEC16F00001B44BB52BB4C013F0B5C08D
:1015120014F0B2C015F0B3C016F06C0E8EEC16F0DB
:10152200010E0001A9250001786F000E0001AA2119
:101532000001796F000E0001AB2100017A6F000EED
:101542000001AC2100017B6F0001A5510001785D13
:101552000001A651000179590001A75100017A59F1
:101562000001A85100017B59D8B061D0A9C078F020
:10157200AAC079F0ABC07AF0ACC07BF00001781F52
:10158200791F7A1F7B1F782B000E79237A237B2306
:101592000001A551000178251B6E0001A651000132
:1015A20079211C6E0001A75100017A211D6E0001F4
:1015B200A85100017B211E6E60EC16F01BC036F0B4
:1015C2001CC037F01DC038F0D3EC11F036C083F0E8
:1015D20037C084F038C085F083C033F084C034F063
:1015E20085C035F0B2C01BF0B3C01CF050EC17F050
:1015F2001BC030F01CC031F01DC032F030EC17F0CF
:1016020030C042F031C043F032C044F0A2EC12F0DC
:1016120042C0B2F043C0B3F0B4C013F0B5C014F08E
:10162200B2C015F0B3C016F06C0E8EEC16F0010EBF
:101632000001A5250001786F000E0001A62100011E
:10164200796F000E0001A72100017A6F000E0001E0
:10165200A82100017B6F0001A9510001785D000102
:10166200AA51000179590001AB5100017A590001D8
:10167200AC5100017B59D8B075D0A5C078F0A6C096
:1016820079F0A7C07AF0A8C07BF00001781F791F1B
:101692007A1F7B1F782B000E79237A237B2300018C
:1016A200A951000178251B6E0001AA510001792180
:1016B2001C6E0001AB5100017A211D6E0001AC517C
:1016C20000017B211E6E60EC16F01BC036F01CC0C0
:1016D20037F01DC038F0D3EC11F036C086F037C0B9
:1016E20087F038C088F0000E276EA00E286E400EDC
:1016F200296E86C024F087C025F088C026F0FDEC54
:1017020010F024C07CF025C07DF026C07EF07CC0A5
:1017120027F07DC028F07EC029F0B2C01BF0B3C014
:101722001CF050EC17F01BC024F01CC025F01DC0AB
:1017320026F0FDEC10F024C042F025C043F026C094
:1017420044F0A2EC12F042C0B2F043C0B3F0B4C015
:1017520013F0B5C014F0B2C015F0B3C016F06C0EA1
:101762008EEC16F00001AC510001AB110001AA1180
:1017720005E1130E0001A95DD8A090D00001A85187
:101782000001A7110001A61105E1130E0001A55DDC
:10179200D8A05FD0000E0001A96F000EAA6F000E44
:1017A200AB6F000EAC6F000E0001A56F000EA66FAE
:1017B200000EA76F000EA86F000E0001B56F000E9D
:1017C200B46F000E0001B76F000EB66F000E00017D
:1017D200B36F000EB26FB6C013F0B7C014F0B2C050
:1017E20015F0B3C016F0720E8EEC16F0B4C013F002
:1017F200B5C014F0B2C015F0B3C016F06C0E8EEC8A
:1018020016F0000E0001B56F230EB46F000E00013A
:10181200B76F190EB66F0001B12B000E0001826F77
:10182200000E816F000182BF08D00001825136E1B3
:10183200140E0001815DD8B031D0820E0001786FA4
:10184200DE0EE82EFED7782FFCD70001814B822BCB
:10185200E9D7000E0001B76F000EB66FFF0E000150
:10186200B56FE20EB46F000E0001B36F000EB26FDF
:10187200B6C013F0B7C014F0B2C015F0B3C016F082
:10188200720E8EEC16F0B6C013F0B7C014F0B2C0F0
:1018920015F0B3C016F0720E8EEC16F0B40E136E85
:1018A200000E146EB60E156E000E166EB20E176E88
:1018B200000E186E39EC13F01200A5C013F0A6C08A
:1018C20014F0A7C015F0A8C016F0060E176E000E91
:1018D200186E000E196E000E1A6EFEEC15F0135003
:1018E200141015101610D8A407D0010E0001A52758
:1018F200000EA623A723A8230001B0BF08D0000131
:10190200B05121E1140E0001AF5DD8B01CD000012E
:10191200B64BB72BB6C013F0B7C014F0B2C015F077
:10192200B3C016F0720E8EEC16F00001B44BB52B5C
:10193200B4C013F0B5C014F0B2C015F0B3C016F0C5
:101942006C0E8EEC16F0010E0001A9250001786FD5
:10195200000E0001AA210001796F000E0001AB21E7
:1019620000017A6F000E0001AC2100017B6F0001C3
:10197200A5510001785D0001A651000179590001CD
:10198200A75100017A590001A85100017B59D8B032
:1019920061D0A9C078F0AAC079F0ABC07AF0ACC02F
:1019A2007BF00001781F791F7A1F7B1F782B000EB6
:1019B20079237A237B230001A551000178251B6E30
:1019C2000001A651000179211C6E0001A7510001FE
:1019D2007A211D6E0001A85100017B211E6E60EC70
:1019E20016F01BC036F01CC037F01DC038F0D3EC27
:1019F20011F036C083F037C084F038C085F083C060
:101A020033F084C034F085C035F0B2C01BF0B3C0EF
:101A12001CF050EC17F01BC030F01CC031F01DC0A0
:101A220032F030EC17F030C042F031C043F032C037
:101A320044F0A2EC12F042C0B2F043C0B3F0B4C022
:101A420013F0B5C014F0B2C015F0B3C016F06C0EAE
:101A52008EEC16F0010E0001A5250001786F000E34
:101A62000001A6210001796F000E0001A7210001EB
:101A72007A6F000E0001A82100017B6F0001A951BD
:101A82000001785D0001AA51000179590001AB51B2
:101A920000017A590001AC5100017B59D8B061D0E4
:101AA200A5C078F0A6C079F0A7C07AF0A8C07BF0F4
:101AB2000001781F791F7A1F7B1F782B000E792374
:101AC2007A237B230001A951000178251B6E0001B6
:101AD200AA51000179211C6E0001AB5100017A214B
:101AE2001D6E0001AC5100017B211E6E60EC16F0F0
:101AF2001BC036F01CC037F01DC038F0D3EC11F01B
:101B020036C086F037C087F038C088F086C027F02C
:101B120087C028F088C029F0B2C01BF0B3C01CF007
:101B220050EC17F01BC024F01CC025F01DC026F09D
:101B3200FDEC10F024C042F025C043F026C044F072
:101B4200A2EC12F042C0B2F043C0B3F0B4C013F042
:101B5200B5C014F0B2C015F0B3C016F06C0E8EEC26
:101B620016F00001AC510001AB1108E1E80E0001D2
:101B7200A95D030E0001AA59D8A034D0000E0001BD
:101B8200A96F000EAA6F000EAB6F000EAC6F000EB5
:101B92000001A56F000EA66F000EA76F000EA86FC2
:101BA200000E0001B56F000EB46F000E0001B76F9A
:101BB200000EB66FB6C013F0B7C014F0B2C015F085
:101BC200B3C016F0720E8EEC16F0B4C013F0B5C0AE
:101BD20014F0B2C015F0B3C016F06C0E8EEC16F015
:101BE2000001B12BB40E136E000E146EB60E156EFC
:101BF200000E166EB20E176E000E186E39EC13F050
:101C020012000001B151000AD8B41BEF08F0010A1A
:101C1200D8B436D4030AD8A412004FD6D3508F0BAF
:101C22006009D36EBAEC16F062EC15F093880F01DE
:101C32003999000E0001916F000E926F000E936FA2
:101C4200000E946F000E0001956F000E966F000E4D
:101C5200976F000E986F000E00019D6F000E9E6F31
:101C6200000E9F6F000EA06F000E00019A6F000E13
:101C7200996F000E00019C6F000E9B6FA8EC14F090
:101C82000B0E1F6E100E206EB1C021F0226AFDEC09
:101C92000FF0FA0E000195250001896F000E000178
:101CA200962100018A6F000E0001972100018B6FBF
:101CB200000E0001982100018C6F0001A15100016A
:101CC200895D0001A25100018A590001A35100015E
:101CD2008B590001A45100018C59D8B032D0A9EC23
:101CE20017F0160E1F6E100E206EAFC021F0B0C09E
:101CF20022F0FDEC0FF0A1C095F0A2C096F0A3C0B7
:101D020097F0A4C098F0A1EC17F0200E1F6E100EF1
:101D1200206EA5C021F0A6C022F0A7C023F0A8C063
:101D220024F0FDEC0FF0280E1F6E100E206EA9C0DD
:101D320021F0AAC022F0ABC023F0ACC024F0FDEC2D
:101D42000FF0640E000191250001896F000E000161
:101D5200922100018A6F000E0001932100018B6F16
:101D6200000E0001942100018C6F0001A1510001BD
:101D7200895D0001A25100018A590001A3510001AD
:101D82008B590001A45100018C59D8B00AD0A1C0CE
:101D920091F0A2C092F0A3C093F0A4C094F019EC09
:101DA20008F0F40E00019D250001896F010E00016B
:101DB2009E2100018A6F000E00019F2100018B6F9E
:101DC200000E0001A02100018C6F0001A151000151
:101DD200895D0001A25100018A590001A35100014D
:101DE2008B590001A45100018C59D8B052D79DC023
:101DF20089F09EC08AF09FC08BF0A0C08CF00001D9
:101E0200891F8A1F8B1F8C1F892B000E8A238B230D
:101E12008C230001A151000189251B6E0001A251F2
:101E220000018A211C6E0001A35100018B211D6E4D
:101E32000001A45100018C211E6E60EC16F01BC043
:101E420036F01CC037F01DC038F0000E276E960E1B
:101E5200286E440E296E9BC08DF09CC08EF0000E41
:101E620000018EBFFF0E8F6F906F00018D1F8E1FBE
:101E72008F1F901F8D2B000E8E238F239023000126
:101E8200A95100018D251B6E0001AA5100018E216E
:101E92001C6E0001AB5100018F211D6E0001AC517F
:101EA200000190211E6E60EC16F01BC024F01CC0D5
:101EB20025F01DC026F0BBEC13F024C033F025C082
:101EC20034F026C035F035EC14F033C042F034C0A3
:101ED20043F035C044F0A2EC12F042C0AFF043C070
:101EE200B0F09DC089F09EC08AF09FC08BF0A0C068
:101EF2008CF00001891F8A1F8B1F8C1F892B000EFB
:101F02008A238B238C230001A151000189251B6E9A
:101F12000001A25100018A211C6E0001A35100019F
:101F22008B211D6E0001A45100018C211E6E60ECFC
:101F320016F01BC036F01CC037F01DC038F0000E82
:101F4200276E960E286E440E296E99C08DF09AC0A7
:101F52008EF0000E00018EBFFF0E8F6F906F00019A
:101F62008D1F8E1F8F1F901F8D2B000E8E238F2390
:101F720090230001A55100018D251B6E0001A65181
:101F820000018E211C6E0001A75100018F211D6EE0
:101F92000001A851000190211E6E60EC16F01BC0DA
:101FA20024F01CC025F01DC026F0BBEC13F024C0A9
:101FB20033F025C034F026C035F035EC14F033C0D0
:101FC20042F034C043F035C044F0A2EC12F042C0FB
:101FD200ADF043C0AEF0A1C09DF0A2C09EF0A3C080
:101FE2009FF0A4C0A0F0A9C09BF0AAC09CF0A5C01D
:101FF20099F0A6C09AF04DD6210E296E000E2A6ED7
:10200200EED0250E3118D8B404D03150B7EC17F009
:10201200E6D0000E306E000E2F6E000E2C6E1FC02A
:10202200F6FF20C0F7FF0800F5507FEC17F0D8A0AC
:1020320032D0000E306E000E2F6E2FC013F030C063
:1020420014F0000E166E0A0E156E6CEC17F013C02B
:102052002FF014C030F0D00E256EFF0E266E1FC07A
:10206200F6FF20C0F7FF0800F550276E286A2550BA
:1020720027262650282227502F26285030221F4A52
:10208200202A1FC0F6FF20C0F7FF0800F5507FECA2
:1020920017F0D8B0D2D71FC0F6FF20C0F7FF1F4AF3
:1020A200202A0800F5CF31F03150000AD8B41200CE
:1020B200640AD8B403D00D0AD8A491D029C0D9FF9C
:1020C2002AC0DAFFDECF2DF0DDCF2EF0020E292658
:1020D200000E2A222EAE06D0030E2C122D6C2E1EBE
:1020E200D8B02E2A010E316E050E3118D8B412D096
:1020F2003150020D010EF324F66E100EF420F76E2D
:102102000900F5502D5C0900F5502E58D8A002D0D8
:10211200312AEAD72F503010D8B409D02CC025F07C
:10212200030E2516D8B403D02F06D8A03006800E91
:1021320031BE7F0E256E2F50315C3050800A2558FB
:10214200D8B007D031502F5E000E31BEFF0E305A8C
:1021520004D0000E306E000E2F6E2F503010D8B407
:102162000AD0200EB7EC17F02F06D8A030062F5059
:102172003010D8A4F6D72CC025F0030E2516D8B4FB
:1021820003D02D0EB7EC17F031C02BF024D02B501A
:10219200020D010EF324F66E100EF420F76E090004
:1021A200F5CF15F00A00F5CF16F02DC013F02EC0B2
:1021B20014F0E6EC16F013C01AF014C01BF0000E77
:1021C2001D6E0A0E1C6E0FEC17F01A50300F316E96
:1021D2003150B7EC17F02B062B28D8A4D8D71FC044
:1021E200F6FF20C0F7FF1F4A202A0800F5CF31F082
:1021F2003150D8B4120005D726C02AF02B6A2C6AB7
:1022020025342A3601E32B802A502F6E29C02AF06A
:102212002B6A2C6A28342A3601E32B802A502E6E30
:102222002F50D8B40BD02E502F5CD8B00ED02F50D8
:1022320000082E242A6E180E2A6407D027C024F024
:1022420028C025F029C026F012002E50D8B40BD099
:102252002F502E5CD8B00ED02E5000082F242A6E9C
:10226200180E2A6407D024C024F025C025F026C009
:1022720026F01200060E2D6E26BE2D8E29BE2D8C46
:10228200258EFF0E2416FF0E2516000E2616288E0A
:10229200FF0E2716FF0E2816000E29162E502F5C51
:1022A200D8B01BD0D8902736283629362E062F5084
:1022B2002E18D8B40DD02D062DC02AF0070E2A16DE
:1022C200D8B406D0EFD7D8902632253224322F2A1E
:1022D2002E502F18D8B41FD0F6D72F502E5CD8B05E
:1022E2001AD0D8902436253626362F062F502E188F
:1022F200D8B40DD02D062DC02AF0070E2A16D8B458
:1023020006D0EFD7D8902932283227322E2A2E50E3
:102312002F18D8A4F7D72DAE0CD0FF0E241AFF0E1B
:10232200251AFF0E261A010E2426000E2522000E63
:1023320026222DAC0CD0FF0E271AFF0E281AFF0EF4
:10234200291A010E2726000E2822000E2922000E2D
:102352002D6E24502726255028222650292229AEC8
:102362000ED0FF0E271AFF0E281AFF0E291A010E91
:102372002726000E2822000E2922010E2D6E27C0CC
:1023820013F028C014F029C015F02FC016F02DC08C
:1023920017F00BEC15F013C024F014C025F015C093
:1023A20026F01200000E136E000E146E000E156E53
:1023B20036C016F037C017F038C018F0B6EC15F07A
:1023C200D8A00DD038AE04D0000E4B6E210E4A6E4E
:1023D200000E366E000E376E000E386E120036C0DA
:1023E20063F037C064F038C065F036C039F037C0EA
:1023F2003AF038C03BF0391E3A1E3B1E392A000E15
:102402003A223B22C80E392400016A6F6E0E3A202E
:1024120000016B6FBE0E3B2000016C6F0001D89073
:102422006C336B336A33000E0001635F800E000170
:10243200645B000E0001655B040E0001666F6AC0FA
:1024420060F06BC061F06CC062F06AC024F06BC0D7
:1024520025F06CC026F063C027F064C028F065C088
:1024620029F0BBEC13F024C067F025C068F026C049
:1024720069F067C024F068C025F069C026F06AC020
:1024820027F06BC028F06CC029F0BBEC13F024C01D
:1024920067F025C068F026C069F067C024F068C004
:1024A20025F069C026F06AC027F06BC028F06CC026
:1024B20029F0BBEC13F024C067F025C068F026C0F9
:1024C20069F06AC024F06BC025F06CC026F0000EE3
:1024D200276EC00E286E3F0E296EBBEC13F024C08F
:1024E2006AF025C06BF026C06CF06AC030F06BC099
:1024F20031F06CC032F067C033F068C034F069C0AC
:1025020035F030EC17F030C06AF031C06BF032C0F9
:102512006CF00001662F93D76AC024F06BC025F0DF
:102522006CC026F036C027F037C028F038C029F03A
:10253200BBEC13F024C036F025C037F026C038F0CB
:10254200120044C06DF000016E6B6F6B43340001EA
:102552006D3701E36E8100016D510001776F00015B
:102562007751D8A409D0000E426E000E436E000EC1
:10257200446E000E456E1200170E00016D6F42C0D0
:102582006EF043C06FF044C070F000016D2900018D
:10259200716F05D00001D89070336F336E33000134
:1025A200712FF8D700016E510001726F438EFF0E3A
:1025B2004216FF0E4316000E441642500001736F7E
:1025C20043500001746F44500001756F0001766B37
:1025D2008E0E0001775F000177AF19D000017751AD
:1025E200800A8F0FD8B009D0000E426E000E436EE3
:1025F200000E446E000E456E12000001D890763334
:102602007533743373330001773FF7D71AD0170E3F
:102612000001776511D0000E426E000E436E000E6F
:10262200446E000E456E12000001D8907337743765
:102632007537763700017707000177510001D8A47A
:10264200F3D7000172510001D8B409D00001761FFE
:10265200751F741F736D000E74237523762373C068
:1026620042F074C043F075C044F076C045F01200E9
:1026720013C0D9FF14C0DAFF010EDBBE0FD0010E6A
:10268200DB5004E13C0EDE5CD8A008D013C0D9FFB9
:1026920014C0DAFF3C0EDE6E000EDD6E13C0D9FFF1
:1026A20014C0DAFF010EDBAE0ED0C50EDE5CFF0EEB
:1026B200DE58D8B008D013C0D9FF14C0DAFFC40E58
:1026C200DE6EFF0EDD6E15C0D9FF16C0DAFF010EF9
:1026D200DBBE0FD0010EDB5004E13C0EDE5CD8A065
:1026E20008D015C0D9FF16C0DAFF3C0EDE6E000E10
:1026F200DD6E15C0D9FF16C0DAFF010EDBAE0ED0BB
:10270200C50EDE5CFF0EDE58D8B008D015C0D9FF6A
:1027120016C0DAFFC40EDE6EFF0EDD6E17C0D9FFE3
:1027220018C0DAFF010EDBBE0FD0010EDB5004E150
:102732001F0EDE5CD8A008D017C0D9FF18C0DAFF80
:102742001E0EDE6E000EDD6E17C0D9FF18C0DAFF56
:10275200010EDBAE1200E20EDE5CFF0EDE58D8B0D8
:10276200120017C0D9FF18C0DAFFE20EDE6EFF0EAC
:10277200DD6E120026C02AF02B6A2C6A25342A3616
:1027820001E32B802A502D6E2D50D8A407D0000EC5
:10279200246E000E256E000E266E120029C02AF04D
:1027A2002B6A2C6A28342A3601E32B802A50326E97
:1027B2003250D8A407D0000E246E000E256E000EF3
:1027C200266E120032507B0F2D2626C032F0295081
:1027D200321A800E3216258E288EFF0E2716FF0E15
:1027E2002816000E2916000E2E6E000E2F6E000EF9
:1027F200306E070E316E24A006D027502E262850A8
:102802002F2229503022D890263225322432D890D5
:10281200273628362936312EEED7090E316E24A0FE
:1028220006D027502E2628502F2229503022D89009
:10283200263225322432D89030322F322E32312EA7
:10284200EED72EC013F02FC014F030C015F02DC0FB
:1028520016F032C017F00BEC15F013C024F014C0C0
:1028620025F015C026F0120035C039F03A6A3B6AED
:102872003434393601E33A803950406E4050D8A49E
:1028820007D0000E336E000E346E000E356E12004D
:1028920038C039F03A6A3B6A3734393601E33A8054
:1028A2003950416E4150D8A407D0000E336E000E4D
:1028B200346E000E356E1200000E3D6E000E3E6E3E
:1028C200000E3F6E4150890F405E35C041F03850D6
:1028D200411A800E4116348EFF0E3316FF0E341647
:1028E200000E3516378EFF0E3616FF0E3716000E07
:1028F2003816180E3C6ED8903D363E363F3636506E
:10290200335C3750345838503558D8A007D0365039
:10291200335E3750345A3850355A3D80D89033366A
:10292200343635363C2EE7D73DC013F03EC014F0A6
:102932003FC015F040C016F041C017F00BEC15F087
:1029420013C033F014C034F015C035F01200000E7D
:10295200926E9690969296948D908D928D84210E81
:10296200146E760EE82EFED7142EFCD700D0300E51
:10297200B1EC17F0270E146EF50EE82EFED7142ECA
:10298200FCD700F0300EB1EC17F0270E146EF50EE6
:10299200E82EFED7142EFCD700F0300EB1EC17F063
:1029A200270E146EF50EE82EFED7142EFCD700F07B
:1029B200380EB1EC17F0270E146EF50EE82EFED786
:1029C200142EFCD700F0080EB1EC17F0270E146E8F
:1029D200F50EE82EFED7142EFCD700F0010EB1EC56
:1029E20017F0270E146EF50EE82EFED7142EFCD724
:1029F20000F0060EB1EC17F0270E146EF50EE82E5D
:102A0200FED7142EFCD700F00F0EB1EC17F08EECAF
:102A120017F012001650D8B405D013501410151028
:102A2200D8A40CD0000E136E000E146E000E156E9C
:102A32001200162AD890153214321332000E1314D3
:102A4200186E000E1414196EFE0E15141A6E18501C
:102A520019101A10D8B40CD0ECD7162A010E13266E
:102A6200000E1422000E1522D890153214321332A1
:102A7200000E1314186E000E1414196EFF0E1514A6
:102A82001A6E185019101A10D8B406D0E6D71606C6
:102A9200D89013361436153614BE03D0020E1660C3
:102AA200F6D716A0149ED89016321650151217504B
:102AB200D8A4158E13C013F014C014F015C015F06D
:102AC2001200F29E000ECD6E3F0ECD16CD50CF0BF2
:102AD2002009CD6E000E0F014E6F3F0E0F014E17F3
:102AE2000F014E51CF0B20094E6F000E0F015D6F8B
:102AF200000E666E0F015D51F00B0A095D6F6650A4
:102B0200F00B0A09666E3F0E0F0149170F0149517A
:102B1200E70B1009496F020E0F015F6FA30E5E6F84
:102B2200020E686EA30E676E7A80A0809D82000EF0
:102B3200BA6EBA50FC0B0209BA6EBA847D0EBB6E35
:102B4200F28EF28C000ECF6E000ECE6E000E0F01D2
:102B5200506F000E4F6FCD800F014E81F28E959017
:102B62009592000E0F013B6F120015AE16D013C0E6
:102B720019F014C01AF015C01BF0191E1A1E1B1EE4
:102B8200192A000E1A221B22000E1924136E000E9F
:102B92001A20146E800E1B20156E18AE16D016C0A9
:102BA20019F017C01AF018C01BF0191E1A1E1B1EAE
:102BB200192A000E1A221B22000E1924166E000E6C
:102BC2001A20176E800E1B20186E000E131A000EAC
:102BD200141A800E151A000E161A000E171A800EFD
:102BE200181A1650135C1750145818501558D8B0AC
:102BF20002D0D8901200D880120017501810191065
:102C02001A10D8B424D0010E1B6E06D0D8901736F5
:102C1200183619361A361B2A1AAEF8D71750135C13
:102C220018501458195015581A501658D8A008D0D0
:102C32001750135E1850145A1950155A1A50165A32
:102C4200D8901A321932183217321B2EE7D713C016
:102C520013F014C014F015C015F016C016F01200CF
:102C620000EEA1F0130EEE6AE806FDE14B6A4A6A35
:102C72007C0EF66E2F0EF76E000EF86E00EEB4F0BC
:102C820010EE04F00900F5CFEEFFE550E150FAE155
:102C9200780EF66E2F0EF76E000EF86E00EE46F00E
:102CA20010EE04F00900F5CFEEFFE550E150FAE135
:102CB2004C904C92000EF86E00010FEF0EF08E0E4B
:102CC200236E06D0D8901E321D321C321B32232AAC
:102CD200000E1B141F6E000E1C14206E000E1D141D
:102CE200216EFF0E1E14226E1F5020102110221082
:102CF200D8A4E8D71BC013F01CC014F01DC015F0F7
:102D020023C016F0000E176E0BEC15F013C01BF06B
:102D120014C01CF015C01DF01200196E720E1918A5
:102D2200D8A40DD013C017F014C018F0D8901736DD
:102D32001836D50E1724486E020E1820496E6C0EF6
:102D42001918D8A4120013C017F014C018F0D890A4
:102D5200173618361550172616501822171E181E29
:102D6200174A182AE90E1724466E020E1820476EDB
:102D720012000F01428F0F01429D0F014251CF0BF2
:102D82001009426F93820F013983788E789C789A6A
:102D9200788878867884030E78127788779477908B
:102DA20093860F013987798E799C799A7988798609
:102DB20079847950FC0B0209796E778A779677923B
:102DC200A19CA19AA08AA08C1200000E186E000E7F
:102DD200176E15501610D8B41CD0010E196E04D0FF
:102DE200D89015361636192A16AEFAD7D890173655
:102DF20018361550135C16501458D8A005D015502B
:102E0200135E1650145A1780D89016321532192EA6
:102E1200EDD717C013F018C014F012001C501D108B
:102E2200D8B418D0010E1E6E04D0D8901C361D36B0
:102E32001E2A1DAEFAD71C501A5C1D501B58D8A072
:102E420004D01C501A5E1D501B5AD8901D321C32E1
:102E52001E2EF1D71AC01AF01BC01BF012003350FD
:102E620034103510D8B406D0000E331A000E341ABE
:102E7200800E351A30C024F031C025F032C026F061
:102E820033C027F034C028F035C029F0FDEC10F033
:102E920024C030F025C031F026C032F01200000EFE
:102EA2001E6E1CAE06D01B6C1C1ED8B01C2A010E56
:102EB2001E6E1BC013F01CC014F0156A8E0E166E27
:102EC2001EC017F00BEC15F013C01BF014C01CF061
:102ED20015C01DF0120013501502F3CF17F0F4CFF6
:102EE20018F013501602F350182614501502F3501E
:102EF200182617C013F018C014F01200156E000E39
:102F0200146E3A0E156005D02F0E156402D0010E14
:102F1200146E14C013F013301200928E8D908D82B5
:102F22008D948D8480BEFCD78D84929E1200146E87
:102F32008D808D921450B1EC17F08EEC17F01200C8
:102F42008D908D92C00EB1EC17F08EEC17F012003E
:102F52008D908D92010EB1EC17F08EEC17F01200ED
:102F6200136E13C089FF8D948D841200156E155057
:0E2F720098EC17F01200E902D50223001900B6
:020000040020DA
:08000000FFFFFFFFFFFFFFFF00
:020000040030CA
:0E000000FF281E3CFFAC85FF0FC00FE00F4035
:00000001FF
